{
  "contractName": "Quasar",
  "abi": [
    {
      "constant": true,
      "inputs": [],
      "name": "unclaimedBonds",
      "outputs": [
        {
          "internalType": "uint256",
          "name": "",
          "type": "uint256"
        }
      ],
      "payable": false,
      "stateMutability": "view",
      "type": "function"
    },
    {
      "constant": false,
      "inputs": [
        {
          "internalType": "address",
          "name": "token",
          "type": "address"
        },
        {
          "internalType": "uint256",
          "name": "amount",
          "type": "uint256"
        }
      ],
      "name": "repayOwedToken",
      "outputs": [],
      "payable": true,
      "stateMutability": "payable",
      "type": "function"
    },
    {
      "constant": true,
      "inputs": [],
      "name": "quasarOwner",
      "outputs": [
        {
          "internalType": "address",
          "name": "",
          "type": "address"
        }
      ],
      "payable": false,
      "stateMutability": "view",
      "type": "function"
    },
    {
      "constant": true,
      "inputs": [],
      "name": "TICKET_VALIDITY_PERIOD",
      "outputs": [
        {
          "internalType": "uint256",
          "name": "",
          "type": "uint256"
        }
      ],
      "payable": false,
      "stateMutability": "view",
      "type": "function"
    },
    {
      "constant": true,
      "inputs": [],
      "name": "plasmaFramework",
      "outputs": [
        {
          "internalType": "contract PlasmaFramework",
          "name": "",
          "type": "address"
        }
      ],
      "payable": false,
      "stateMutability": "view",
      "type": "function"
    },
    {
      "constant": true,
      "inputs": [
        {
          "internalType": "address",
          "name": "",
          "type": "address"
        }
      ],
      "name": "tokenData",
      "outputs": [
        {
          "internalType": "address",
          "name": "qTokenAddress",
          "type": "address"
        },
        {
          "internalType": "uint256",
          "name": "exchangeRate",
          "type": "uint256"
        },
        {
          "internalType": "uint256",
          "name": "owedAmount",
          "type": "uint256"
        },
        {
          "internalType": "uint256",
          "name": "poolSupply",
          "type": "uint256"
        },
        {
          "internalType": "uint256",
          "name": "quasarFee",
          "type": "uint256"
        }
      ],
      "payable": false,
      "stateMutability": "view",
      "type": "function"
    },
    {
      "constant": true,
      "inputs": [],
      "name": "IFE_CLAIM_MARGIN",
      "outputs": [
        {
          "internalType": "uint256",
          "name": "",
          "type": "uint256"
        }
      ],
      "payable": false,
      "stateMutability": "view",
      "type": "function"
    },
    {
      "constant": true,
      "inputs": [
        {
          "internalType": "uint256",
          "name": "",
          "type": "uint256"
        }
      ],
      "name": "ticketData",
      "outputs": [
        {
          "internalType": "address payable",
          "name": "outputOwner",
          "type": "address"
        },
        {
          "internalType": "uint256",
          "name": "validityTimestamp",
          "type": "uint256"
        },
        {
          "internalType": "uint256",
          "name": "outputValue",
          "type": "uint256"
        },
        {
          "internalType": "uint256",
          "name": "reservedAmount",
          "type": "uint256"
        },
        {
          "internalType": "address",
          "name": "token",
          "type": "address"
        },
        {
          "internalType": "uint256",
          "name": "bondValue",
          "type": "uint256"
        },
        {
          "internalType": "bytes",
          "name": "rlpOutputCreationTx",
          "type": "bytes"
        },
        {
          "internalType": "bool",
          "name": "isClaimed",
          "type": "bool"
        }
      ],
      "payable": false,
      "stateMutability": "view",
      "type": "function"
    },
    {
      "constant": true,
      "inputs": [],
      "name": "waitingPeriod",
      "outputs": [
        {
          "internalType": "uint256",
          "name": "",
          "type": "uint256"
        }
      ],
      "payable": false,
      "stateMutability": "view",
      "type": "function"
    },
    {
      "constant": false,
      "inputs": [
        {
          "internalType": "address",
          "name": "token",
          "type": "address"
        },
        {
          "internalType": "uint256",
          "name": "amount",
          "type": "uint256"
        }
      ],
      "name": "addTokenCapacity",
      "outputs": [],
      "payable": false,
      "stateMutability": "nonpayable",
      "type": "function"
    },
    {
      "constant": true,
      "inputs": [
        {
          "internalType": "uint256",
          "name": "",
          "type": "uint256"
        }
      ],
      "name": "ifeClaimData",
      "outputs": [
        {
          "internalType": "bytes",
          "name": "rlpClaimTx",
          "type": "bytes"
        },
        {
          "internalType": "uint256",
          "name": "finalizationTimestamp",
          "type": "uint256"
        },
        {
          "internalType": "bool",
          "name": "isValid",
          "type": "bool"
        }
      ],
      "payable": false,
      "stateMutability": "view",
      "type": "function"
    },
    {
      "constant": true,
      "inputs": [],
      "name": "quasarMaintainer",
      "outputs": [
        {
          "internalType": "address",
          "name": "",
          "type": "address"
        }
      ],
      "payable": false,
      "stateMutability": "view",
      "type": "function"
    },
    {
      "constant": true,
      "inputs": [],
      "name": "spendingConditionRegistry",
      "outputs": [
        {
          "internalType": "contract SpendingConditionRegistry",
          "name": "",
          "type": "address"
        }
      ],
      "payable": false,
      "stateMutability": "view",
      "type": "function"
    },
    {
      "constant": false,
      "inputs": [],
      "name": "addEthCapacity",
      "outputs": [],
      "payable": true,
      "stateMutability": "payable",
      "type": "function"
    },
    {
      "constant": false,
      "inputs": [
        {
          "internalType": "address",
          "name": "token",
          "type": "address"
        },
        {
          "internalType": "address",
          "name": "qTokenContract",
          "type": "address"
        },
        {
          "internalType": "uint256",
          "name": "quasarFee",
          "type": "uint256"
        }
      ],
      "name": "registerQToken",
      "outputs": [],
      "payable": false,
      "stateMutability": "nonpayable",
      "type": "function"
    },
    {
      "constant": true,
      "inputs": [
        {
          "internalType": "address",
          "name": "",
          "type": "address"
        }
      ],
      "name": "tokenUsableCapacity",
      "outputs": [
        {
          "internalType": "uint256",
          "name": "",
          "type": "uint256"
        }
      ],
      "payable": false,
      "stateMutability": "view",
      "type": "function"
    },
    {
      "constant": true,
      "inputs": [],
      "name": "safeBlockMargin",
      "outputs": [
        {
          "internalType": "uint256",
          "name": "",
          "type": "uint256"
        }
      ],
      "payable": false,
      "stateMutability": "view",
      "type": "function"
    },
    {
      "constant": true,
      "inputs": [],
      "name": "isPaused",
      "outputs": [
        {
          "internalType": "bool",
          "name": "",
          "type": "bool"
        }
      ],
      "payable": false,
      "stateMutability": "view",
      "type": "function"
    },
    {
      "constant": false,
      "inputs": [
        {
          "internalType": "address",
          "name": "token",
          "type": "address"
        },
        {
          "internalType": "uint256",
          "name": "amount",
          "type": "uint256"
        }
      ],
      "name": "withdrawFunds",
      "outputs": [],
      "payable": false,
      "stateMutability": "nonpayable",
      "type": "function"
    },
    {
      "constant": true,
      "inputs": [],
      "name": "bondValue",
      "outputs": [
        {
          "internalType": "uint256",
          "name": "",
          "type": "uint256"
        }
      ],
      "payable": false,
      "stateMutability": "view",
      "type": "function"
    },
    {
      "constant": true,
      "inputs": [],
      "name": "paymentExitGame",
      "outputs": [
        {
          "internalType": "contract PaymentExitGame",
          "name": "",
          "type": "address"
        }
      ],
      "payable": false,
      "stateMutability": "view",
      "type": "function"
    },
    {
      "constant": true,
      "inputs": [],
      "name": "IFE_CLAIM_WAITING_PERIOD",
      "outputs": [
        {
          "internalType": "uint256",
          "name": "",
          "type": "uint256"
        }
      ],
      "payable": false,
      "stateMutability": "view",
      "type": "function"
    },
    {
      "inputs": [
        {
          "internalType": "address",
          "name": "plasmaFrameworkContract",
          "type": "address"
        },
        {
          "internalType": "address",
          "name": "spendingConditionRegistryContract",
          "type": "address"
        },
        {
          "internalType": "address",
          "name": "_quasarOwner",
          "type": "address"
        },
        {
          "internalType": "uint256",
          "name": "_safeBlockMargin",
          "type": "uint256"
        },
        {
          "internalType": "uint256",
          "name": "_waitingPeriod",
          "type": "uint256"
        },
        {
          "internalType": "uint256",
          "name": "_bondValue",
          "type": "uint256"
        }
      ],
      "payable": false,
      "stateMutability": "nonpayable",
      "type": "constructor"
    },
    {
      "anonymous": false,
      "inputs": [
        {
          "indexed": false,
          "internalType": "uint256",
          "name": "utxoPos",
          "type": "uint256"
        }
      ],
      "name": "NewTicketObtained",
      "type": "event"
    },
    {
      "anonymous": false,
      "inputs": [
        {
          "indexed": false,
          "internalType": "uint256",
          "name": "utxoPos",
          "type": "uint256"
        },
        {
          "indexed": false,
          "internalType": "uint160",
          "name": "exitId",
          "type": "uint160"
        }
      ],
      "name": "IFEClaimSubmitted",
      "type": "event"
    },
    {
      "anonymous": false,
      "inputs": [
        {
          "indexed": false,
          "internalType": "address",
          "name": "token",
          "type": "address"
        },
        {
          "indexed": false,
          "internalType": "uint256",
          "name": "balance",
          "type": "uint256"
        }
      ],
      "name": "QuasarTotalCapacityUpdated",
      "type": "event"
    },
    {
      "constant": true,
      "inputs": [],
      "name": "getLatestSafeBlock",
      "outputs": [
        {
          "internalType": "uint256",
          "name": "",
          "type": "uint256"
        }
      ],
      "payable": false,
      "stateMutability": "view",
      "type": "function"
    },
    {
      "constant": false,
      "inputs": [
        {
          "internalType": "uint256",
          "name": "margin",
          "type": "uint256"
        }
      ],
      "name": "setSafeBlockMargin",
      "outputs": [],
      "payable": false,
      "stateMutability": "nonpayable",
      "type": "function"
    },
    {
      "constant": false,
      "inputs": [
        {
          "internalType": "uint256",
          "name": "utxoPos",
          "type": "uint256"
        }
      ],
      "name": "flushExpiredTicket",
      "outputs": [],
      "payable": false,
      "stateMutability": "nonpayable",
      "type": "function"
    },
    {
      "constant": false,
      "inputs": [],
      "name": "pauseQuasar",
      "outputs": [],
      "payable": false,
      "stateMutability": "nonpayable",
      "type": "function"
    },
    {
      "constant": false,
      "inputs": [],
      "name": "resumeQuasar",
      "outputs": [],
      "payable": false,
      "stateMutability": "nonpayable",
      "type": "function"
    },
    {
      "constant": false,
      "inputs": [],
      "name": "withdrawUnclaimedBonds",
      "outputs": [],
      "payable": false,
      "stateMutability": "nonpayable",
      "type": "function"
    },
    {
      "constant": false,
      "inputs": [
        {
          "internalType": "uint256",
          "name": "utxoPos",
          "type": "uint256"
        },
        {
          "internalType": "bytes",
          "name": "rlpOutputCreationTx",
          "type": "bytes"
        },
        {
          "internalType": "bytes",
          "name": "outputCreationTxInclusionProof",
          "type": "bytes"
        }
      ],
      "name": "obtainTicket",
      "outputs": [],
      "payable": true,
      "stateMutability": "payable",
      "type": "function"
    },
    {
      "constant": false,
      "inputs": [
        {
          "internalType": "uint256",
          "name": "utxoPos",
          "type": "uint256"
        },
        {
          "internalType": "uint256",
          "name": "utxoPosQuasarOwner",
          "type": "uint256"
        },
        {
          "internalType": "bytes",
          "name": "rlpTxToQuasarOwner",
          "type": "bytes"
        },
        {
          "internalType": "bytes",
          "name": "txToQuasarOwnerInclusionProof",
          "type": "bytes"
        }
      ],
      "name": "claim",
      "outputs": [],
      "payable": false,
      "stateMutability": "nonpayable",
      "type": "function"
    },
    {
      "constant": false,
      "inputs": [
        {
          "internalType": "uint256",
          "name": "utxoPos",
          "type": "uint256"
        },
        {
          "internalType": "bytes",
          "name": "inFlightClaimTx",
          "type": "bytes"
        }
      ],
      "name": "ifeClaim",
      "outputs": [],
      "payable": false,
      "stateMutability": "nonpayable",
      "type": "function"
    },
    {
      "constant": false,
      "inputs": [
        {
          "internalType": "uint256",
          "name": "utxoPos",
          "type": "uint256"
        },
        {
          "internalType": "bytes",
          "name": "rlpChallengeTx",
          "type": "bytes"
        },
        {
          "internalType": "uint16",
          "name": "challengeTxInputIndex",
          "type": "uint16"
        },
        {
          "internalType": "bytes",
          "name": "challengeTxWitness",
          "type": "bytes"
        },
        {
          "internalType": "uint16",
          "name": "otherInputIndex",
          "type": "uint16"
        },
        {
          "internalType": "bytes",
          "name": "otherInputCreationTx",
          "type": "bytes"
        },
        {
          "internalType": "bytes32",
          "name": "senderData",
          "type": "bytes32"
        }
      ],
      "name": "challengeIfeClaim",
      "outputs": [],
      "payable": false,
      "stateMutability": "nonpayable",
      "type": "function"
    },
    {
      "constant": false,
      "inputs": [
        {
          "internalType": "uint256",
          "name": "utxoPos",
          "type": "uint256"
        }
      ],
      "name": "processIfeClaim",
      "outputs": [],
      "payable": false,
      "stateMutability": "nonpayable",
      "type": "function"
    }
  ],
  "bytecode": "0x60806040523480156200001157600080fd5b506040516200625738038062006257833981016040819052620000349162000195565b600380546001600160a01b0319166001600160a01b0388811691909117918290556040517faf07976400000000000000000000000000000000000000000000000000000000815291169063af0797649062000095906001906004016200023a565b60206040518083038186803b158015620000ae57600080fd5b505afa158015620000c3573d6000803e3d6000fd5b505050506040513d601f19601f82011682018060405250620000e991908101906200016c565b600480546001600160a01b039283166001600160a01b03199182161790915560058054978316978216979097179096556006805495909116948616949094179093556000805490941633178455600791909155600855600955600a555062000291565b805162000159816200026c565b92915050565b8051620001598162000286565b6000602082840312156200017f57600080fd5b60006200018d84846200014c565b949350505050565b60008060008060008060c08789031215620001af57600080fd5b6000620001bd89896200014c565b9650506020620001d089828a016200014c565b9550506040620001e389828a016200014c565b9450506060620001f689828a016200015f565b93505060806200020989828a016200015f565b92505060a06200021c89828a016200015f565b9150509295509295509295565b62000234816200025f565b82525050565b6020810162000159828462000229565b60006001600160a01b03821662000159565b90565b600062000159826200025c565b62000277816200024a565b81146200028357600080fd5b50565b62000277816200025c565b615fb680620002a16000396000f3fe6080604052600436106101ee5760003560e01c8063417a97261161010d5780639829625c116100a0578063d2d5862c1161006f578063d2d5862c14610530578063d82a94ae14610545578063e8469a811461055a578063e87e91891461056f578063e9f05da314610584576101ee565b80639829625c146104c4578063a9776b37146104d9578063b187bd26146104ee578063c107532914610510576101ee565b80637cc8448e116100dc5780637cc8448e1461045c57806380ec46df146104645780639069f192146104845780639132ccb2146104a4576101ee565b8063417a9726146103f25780635a6d086f146104075780635f4a12d31461042757806371ff579414610447576101ee565b80632c303564116101855780633be457bf116101545780633be457bf146103705780633c2568a9146103905780633d960403146103b05780633f136c8f146103df576101ee565b80632c303564146102f257806335098e8f14610312578063394803fd146103275780633a2ef9df1461035b576101ee565b80631bdaccd8116101c15780631bdaccd81461026a57806320cc593f1461027f57806321cc9343146102a157806327e45c2c146102c1576101ee565b8063067a83eb146101f3578063084d0f801461021e5780630d4bf070146102335780631047b1e314610248575b600080fd5b3480156101ff57600080fd5b50610208610599565b6040516102159190615d7f565b60405180910390f35b34801561022a57600080fd5b5061020861059f565b610246610241366004613c51565b6106f1565b005b34801561025457600080fd5b5061025d6107a5565b6040516102159190615690565b34801561027657600080fd5b506102086107b4565b34801561028b57600080fd5b506102946107ba565b6040516102159190615871565b3480156102ad57600080fd5b506102466102bc366004613d67565b6107c9565b3480156102cd57600080fd5b506102e16102dc366004613be6565b610a23565b60405161021595949392919061577b565b3480156102fe57600080fd5b5061024661030d366004613d2b565b610a5d565b34801561031e57600080fd5b50610208610b5c565b34801561033357600080fd5b50610347610342366004613d2b565b610b62565b6040516102159897969594939291906156c7565b34801561036757600080fd5b50610208610c43565b34801561037c57600080fd5b5061024661038b366004613e1f565b610c49565b34801561039c57600080fd5b506102466103ab366004613c51565b6110ae565b3480156103bc57600080fd5b506103d06103cb366004613d2b565b6110d7565b60405161021593929190615844565b6102466103ed366004613dae565b611188565b3480156103fe57600080fd5b5061025d61154e565b34801561041357600080fd5b50610246610422366004613d2b565b61155d565b34801561043357600080fd5b50610246610442366004613f00565b611630565b34801561045357600080fd5b50610294611703565b610246611712565b34801561047057600080fd5b5061024661047f366004613d2b565b61171f565b34801561049057600080fd5b5061024661049f366004613c04565b61174e565b3480156104b057600080fd5b506102086104bf366004613be6565b611830565b3480156104d057600080fd5b50610246611842565b3480156104e557600080fd5b5061020861187b565b3480156104fa57600080fd5b50610503611881565b60405161021591906157d8565b34801561051c57600080fd5b5061024661052b366004613c51565b61188a565b34801561053c57600080fd5b50610208611b08565b34801561055157600080fd5b50610294611b0e565b34801561056657600080fd5b50610246611b1d565b34801561057b57600080fd5b50610246611b53565b34801561059057600080fd5b50610208611b93565b600a5481565b600080600360009054906101000a90046001600160a01b03166001600160a01b03166338a9e0bc6040518163ffffffff1660e01b815260040160206040518083038186803b1580156105f057600080fd5b505afa158015610604573d6000803e3d6000fd5b505050506040513d601f19601f820116820180604052506106289190810190613d49565b905060006106c282600360009054906101000a90046001600160a01b03166001600160a01b0316634ca8714f6040518163ffffffff1660e01b815260040160206040518083038186803b15801561067e57600080fd5b505afa158015610692573d6000803e3d6000fd5b505050506040513d601f19601f820116820180604052506106b69190810190613d49565b9063ffffffff611b9a16565b90506106e96106dc83600754611bc790919063ffffffff16565b829063ffffffff611b9a16565b925050505b90565b6001600160a01b038216610706575034610721565b6107216001600160a01b03831633308463ffffffff611c0816565b6001600160a01b03821660009081526002602052604090205461074a908263ffffffff611c6916565b6001600160a01b038316600090815260026020818152604080842094909455600190529190200154610782908263ffffffff611b9a16565b6001600160a01b0390921660009081526001602052604090206002019190915550565b6006546001600160a01b031681565b61384081565b6003546001600160a01b031681565b6107d282611c8e565b6107dc8282611d33565b60006107e782611e3f565b6040805160018082528183019092529192506060919060208083019080388339019050509050818160008151811061081b57fe5b6001600160a01b0392831660209182029290920101526004805460405163cec9e1a760e01b8152606093919091169163cec9e1a79161085c918691016157c7565b60006040518083038186803b15801561087457600080fd5b505afa158015610888573d6000803e3d6000fd5b505050506040513d6000823e601f3d908101601f191682016040526108b09190810190613c8b565b9050806000815181106108bf57fe5b6020026020010151602001516001600160401b0316600014156108fd5760405162461bcd60e51b81526004016108f490615baf565b60405180910390fd5b6109336170808260008151811061091057fe5b6020026020010151602001516001600160401b0316611c6990919063ffffffff16565b4211156109525760405162461bcd60e51b81526004016108f490615b0f565b6000858152600c6020908152604091829020600701805460ff19166001179055815160608101909252858252810161099342620a8c0063ffffffff611c6916565b815260016020918201526000878152600d8252604090208251805191926109bf92849290910190613706565b50602082015160018201556040918201516002909101805460ff1916911515919091179055517fb29649e775970df3b15b55fdec6ed94f70d03683cd54b8fb201b46a1765c3a2490610a149087908690615d8d565b60405180910390a15050505050565b6001602081905260009182526040909120805491810154600282015460038301546004909301546001600160a01b03909416939192909185565b6000818152600c60205260409020600181015460079091015460ff1615610a965760405162461bcd60e51b81526004016108f4906159cf565b8042118015610aa457508015155b610ac05760405162461bcd60e51b81526004016108f490615c6f565b6000828152600c6020908152604080832060038101805490859055600182018590556004909101546001600160a01b03168452600290925290912054610b0c908263ffffffff611c6916565b6000848152600c6020818152604080842060048101546001600160a01b03168552600283529084209490945591869052905260050154600a54610b549163ffffffff611c6916565b600a55505050565b61708081565b600c6020908152600091825260409182902080546001808301546002808501546003860154600487015460058801546006890180548c51601f6000199a831615610100029a909a01909116969096049788018b90048b0286018b01909b528685526001600160a01b039788169a95999398929791909116959094919392830182828015610c305780601f10610c0557610100808354040283529160200191610c30565b820191906000526020600020905b815481529060010190602001808311610c1357829003601f168201915b5050506007909301549192505060ff1688565b60085481565b33604051602001610c5a9190615605565b604051602081830303815290604052805190602001208114610c8e5760405162461bcd60e51b81526004016108f490615d5f565b6000878152600c602052604090206007015460ff168015610cc057506000878152600d602052604090206002015460ff165b610cdc5760405162461bcd60e51b81526004016108f490615b2f565b6000878152600d6020526040902060010154421115610d0d5760405162461bcd60e51b81526004016108f4906159df565b8580519060200120600d6000898152602001908152602001600020600001604051610d389190615679565b60405180910390201415610d5e5760405162461bcd60e51b81526004016108f49061590f565b600354610d74906001600160a01b031687611e65565b610d905760405162461bcd60e51b81526004016108f490615c5f565b8151610e44576000878152600c60209081526040918290206006018054835160026001831615610100026000190190921691909104601f8101849004840282018401909452838152610e3f938b93919291830182828015610e325780601f10610e0757610100808354040283529160200191610e32565b820191906000526020600020905b815481529060010190602001808311610e1557829003601f168201915b5050505050888888611f46565b610f1b565b610e4c613784565b6000888152600d602090815260409182902080548351601f60026000196101006001861615020190931692909204918201849004840281018401909452808452610eec9392830182828015610ee25780601f10610eb757610100808354040283529160200191610ee2565b820191906000526020600020905b815481529060010190602001808311610ec557829003601f168201915b50505050506120fa565b9050610f1981602001518561ffff1681518110610f0557fe5b602002602001015160001c84898989611f46565b505b6000878152600d60205260409020600201805460ff19169055610f3c6137b6565b6000888152600c60209081526040918290208251610100808201855282546001600160a01b03908116835260018085015484870152600280860154858901526003860154606086015260048601549092166080850152600585015460a08501526006850180548851928116159094026000190190931691909104601f81018690048602820186019096528581529194929360c0860193908301828280156110245780601f10610ff957610100808354040283529160200191611024565b820191906000526020600020905b81548152906001019060200180831161100757829003601f168201915b50505091835250506007919091015460ff161515602091820152606082015160808301516001600160a01b031660009081526002909252604090912054919250611074919063ffffffff611c6916565b60808201516001600160a01b031660009081526002602052604090205560a08101516110a49033906108fc612113565b5050505050505050565b6110c96001600160a01b03831633308463ffffffff611c0816565b6110d3828261213f565b5050565b600d6020908152600091825260409182902080548351601f6002600019610100600186161502019093169290920491820184900484028101840190945280845290929183919083018282801561116e5780601f106111435761010080835404028352916020019161116e565b820191906000526020600020905b81548152906001019060200180831161115157829003601f168201915b50505050600183015460029093015491929160ff16905083565b600b5460ff16156111ab5760405162461bcd60e51b81526004016108f490615c4f565b60095434146111cc5760405162461bcd60e51b81526004016108f49061596f565b6000838152600c602052604090206007015460ff16156111fe5760405162461bcd60e51b81526004016108f4906159cf565b6000838152600c60205260409020600101541561122d5760405162461bcd60e51b81526004016108f490615c9f565b61123561380f565b61123e846122de565b905061124861059f565b81516001600160401b031611156112715760405162461bcd60e51b81526004016108f490615d1f565b611279613784565b611282846120fa565b905061128c61382f565b61129a828460400151612371565b90506112a681336123c5565b6112c25760405162461bcd60e51b81526004016108f490615a7f565b6003546112e2906001600160a01b0316866112dc866123e9565b87612423565b6112fe5760405162461bcd60e51b81526004016108f490615b1f565b6040808201516001600160a01b03166000908152600160205220600401546060820151811061133f5760405162461bcd60e51b81526004016108f490615a0f565b6060820151600090611357908363ffffffff611b9a16565b6040808501516001600160a01b03166000908152600260205220549091508111156113945760405162461bcd60e51b81526004016108f49061593f565b6040808401516001600160a01b03166000908152600260205220546113bf908263ffffffff611b9a16565b6040808501516001600160a01b03166000908152600260209081529082902092909255805161010081019091523381529081016114044261384063ffffffff611c6916565b81526020018460600151815260200182815260200184604001516001600160a01b0316815260200134815260200188815260200160001515815250600c60008a815260200190815260200160002060008201518160000160006101000a8154816001600160a01b0302191690836001600160a01b0316021790555060208201518160010155604082015181600201556060820151816003015560808201518160040160006101000a8154816001600160a01b0302191690836001600160a01b0316021790555060a0820151816005015560c08201518160060190805190602001906114f0929190613706565b5060e091909101516007909101805460ff19169115159190911790556040517f46650edf382c45ad9fa9d4b1a0bc52c4ec0b137c7532841fc574716b1eaf4fa39061153c908a90615d7f565b60405180910390a15050505050505050565b6000546001600160a01b031681565b6000818152600d6020526040902060010154421161158d5760405162461bcd60e51b81526004016108f49061597f565b6000818152600d602052604090206002015460ff166115be5760405162461bcd60e51b81526004016108f490615bdf565b6000818152600d602090815260408083206002908101805460ff19169055600c90925290912060048101549101546115ff916001600160a01b0316906125cf565b6000818152600c60205260409020805460049091015461162d9183916001600160a01b039182169116612755565b50565b61163984611c8e565b6116438483611d33565b61164b61380f565b611654846122de565b600354909150611677906001600160a01b031684611671846123e9565b85612423565b6116935760405162461bcd60e51b81526004016108f490615b1f565b6000858152600c6020526040902060078101805460ff1916600117905560048101546002909101546116ce916001600160a01b0316906125cf565b6000858152600c6020526040902080546004909101546116fc9187916001600160a01b039182169116612755565b5050505050565b6005546001600160a01b031681565b61171d60003461213f565b565b6000546001600160a01b031633146117495760405162461bcd60e51b81526004016108f490615a5f565b600755565b6000546001600160a01b031633146117785760405162461bcd60e51b81526004016108f490615a5f565b6001600160a01b0383811660009081526001602052604090205416156117b05760405162461bcd60e51b81526004016108f490615c7f565b6040805160a0810182526001600160a01b03938416815266071afd498d00006020808301918252600083850181815260608501828152608086019788529888168252600192839052949020925183546001600160a01b03191696169590951782555193810193909355516002830155915160038201559051600490910155565b60026020526000908152604090205481565b6000546001600160a01b0316331461186c5760405162461bcd60e51b81526004016108f490615a5f565b600b805460ff19166001179055565b60075481565b600b5460ff1681565b6001600160a01b038083166000908152600160205260408082205490516370a0823160e01b815292169182906370a08231906118ca90339060040161569e565b60206040518083038186803b1580156118e257600080fd5b505afa1580156118f6573d6000803e3d6000fd5b505050506040513d601f19601f8201168201806040525061191a9190810190613d49565b90508083111561193c5760405162461bcd60e51b81526004016108f490615cbf565b60408051602080820183526001600160a01b03871660009081526001918290529283200154815261196d90856127f3565b6001600160a01b0386166000908152600260205260409020549091508111156119a85760405162461bcd60e51b81526004016108f490615a6f565b6001600160a01b0385166000908152600260205260409020546119d1908263ffffffff611b9a16565b6001600160a01b038616600090815260026020908152604080832093909355600190522060030154611a09908263ffffffff611b9a16565b6001600160a01b0380871660009081526001602052604090819020600301929092559051632770a7eb60e21b815290841690639dc29fac90611a5190339088906004016156ac565b600060405180830381600087803b158015611a6b57600080fd5b505af1158015611a7f573d6000803e3d6000fd5b505050506001600160a01b038516611aa357611a9e33826108fc612113565b611abd565b611abd6001600160a01b038616338363ffffffff61281216565b6001600160a01b038516600090815260026020526040908190205490517f295117b46583975aa628030f075db55be810827e0213ee4e1f8d02c1c7f16efd91610a149188919061576d565b60095481565b6004546001600160a01b031681565b6000546001600160a01b03163314611b475760405162461bcd60e51b81526004016108f490615a5f565b600b805460ff19169055565b6000546001600160a01b03163314611b7d5760405162461bcd60e51b81526004016108f490615a5f565b600a8054600090915561162d33826108fc612113565b620a8c0081565b600082821115611bbc5760405162461bcd60e51b81526004016108f490615a3f565b508082035b92915050565b600082611bd657506000611bc1565b82820282848281611be357fe5b0414611c015760405162461bcd60e51b81526004016108f490615b4f565b9392505050565b604051611c639085906323b872dd60e01b90611c2c90879087908790602401615745565b60408051601f198184030181529190526020810180516001600160e01b03166001600160e01b031990931692909217909152612834565b50505050565b600082820183811015611c015760405162461bcd60e51b81526004016108f49061599f565b6000818152600c602052604090206007015460ff1615611cc05760405162461bcd60e51b81526004016108f490615b3f565b6000818152600c60205260409020546001600160a01b03163314611cf65760405162461bcd60e51b81526004016108f4906158bf565b6000818152600c60205260409020600101548015801590611d175750804211155b6110d35760405162461bcd60e51b81526004016108f490615c1f565b611d3b613784565b611d44826120fa565b90508260001b8160200151600081518110611d5b57fe5b602002602001015114611d805760405162461bcd60e51b81526004016108f490615bbf565b611d8861382f565b611d93826000612371565b600654909150611dad9082906001600160a01b03166123c5565b611dc95760405162461bcd60e51b81526004016108f4906159bf565b60608101516000858152600c602052604090206002015414611dfd5760405162461bcd60e51b81526004016108f49061588f565b6040808201516000868152600c60205291909120600401546001600160a01b03908116911614611c635760405162461bcd60e51b81526004016108f490615c3f565b80516020820120600090611e5d9060691c609763ffffffff61291916565b90505b919050565b6000815160001415611e7957506000611bc1565b611e81613856565b611e8a83612926565b8051604051630461cb1160e51b81529192506000916001600160a01b03871691638c39622091611ebd9190600401615d7f565b60206040518083038186803b158015611ed557600080fd5b505afa158015611ee9573d6000803e3d6000fd5b505050506040513d601f19601f82011682018060405250611f0d9190810190613f8f565b9050611f17612ac6565b60ff168160ff1614611f3b5760405162461bcd60e51b81526004016108f490615d3f565b506001949350505050565b611f4e613856565b611f5784612926565b9050611f61613856565b611f6a86612926565b9050611f7461380f565b611f7d886122de565b9050611f8761388b565b611f95838360400151612acb565b600554815186516040516364f40d6f60e01b81529394506000936001600160a01b03909316926364f40d6f92611fcf929091600401615da8565b60206040518083038186803b158015611fe757600080fd5b505afa158015611ffb573d6000803e3d6000fd5b505050506040513d601f19601f8201168201806040525061201f9190810190613d0d565b90506001600160a01b0381166120475760405162461bcd60e51b81526004016108f490615bff565b60405163e618a6f560e01b81526000906001600160a01b0383169063e618a6f59061207e908d908f908e908e908e906004016157e6565b60206040518083038186803b15801561209657600080fd5b505afa1580156120aa573d6000803e3d6000fd5b505050506040513d601f19601f820116820180604052506120ce9190810190613cbf565b9050806120ed5760405162461bcd60e51b81526004016108f490615a4f565b5050505050505050505050565b612102613784565b611e5d61210e83612926565b612ad3565b6000612120848484612cd2565b905080611c635760405162461bcd60e51b81526004016108f490615acf565b6001600160a01b03828116600090815260016020526040902054166121765760405162461bcd60e51b81526004016108f490615aff565b6001600160a01b03821660009081526002602052604090205461219f908263ffffffff611c6916565b6001600160a01b0383166000908152600260209081526040808320939093556001905220600301546121d7908263ffffffff611c6916565b6001600160a01b0383166000908152600160208181526040808420600381019590955580519182019052920154825290612212908390612d3c565b6001600160a01b03808516600090815260016020526040908190205490516340c10f1960e01b815292935016906340c10f199061225590339085906004016156ac565b600060405180830381600087803b15801561226f57600080fd5b505af1158015612283573d6000803e3d6000fd5b5050506001600160a01b038416600090815260026020526040908190205490517f295117b46583975aa628030f075db55be810827e0213ee4e1f8d02c1c7f16efd92506122d191869161576d565b60405180910390a1505050565b6122e661380f565b633b9aca00808304906127109084068190049084066429f16b11c68311156123205760405162461bcd60e51b81526004016108f4906158af565b61ffff8211156123425760405162461bcd60e51b81526004016108f4906158ef565b604080516060810182526001600160401b03909416845261ffff92831660208501529116908201529050919050565b61237961382f565b8260400151518261ffff16106123a15760405162461bcd60e51b81526004016108f4906158ff565b82604001518261ffff16815181106123b557fe5b6020026020010151905092915050565b6000806123d184612d50565b6001600160a01b039081169084161491505092915050565b6123f161380f565b506040805160608101825282516001600160401b0316815260209283015161ffff169281019290925260009082015290565b6000826040015161ffff1660001461244d5760405162461bcd60e51b81526004016108f490615a9f565b612455613856565b61245e85612926565b8051604051630461cb1160e51b81529192506000916001600160a01b03891691638c396220916124919190600401615d7f565b60206040518083038186803b1580156124a957600080fd5b505afa1580156124bd573d6000803e3d6000fd5b505050506040513d601f19601f820116820180604052506124e19190810190613f8f565b90506124eb612ac6565b60ff168160ff161461250f5760405162461bcd60e51b81526004016108f490615d3f565b845160405163f25b3f9960e01b81526000916001600160a01b038a169163f25b3f999161253e91600401615db6565b604080518083038186803b15801561255557600080fd5b505afa158015612569573d6000803e3d6000fd5b505050506040513d601f19601f8201168201806040525061258d9190810190613cdd565b509050806125ad5760405162461bcd60e51b81526004016108f490615abf565b6125c187876020015161ffff168388612d5a565b93505050505b949350505050565b6001600160a01b0380831660009081526001602090815260408083205481516318160ddd60e01b8152915194169384926318160ddd9260048082019391829003018186803b15801561262057600080fd5b505afa158015612634573d6000803e3d6000fd5b505050506040513d601f19601f820116820180604052506126589190810190613d49565b6001600160a01b038516600090815260016020526040812060048101546003909101549293509161269090839063ffffffff611c6916565b9050806126af5760405162461bcd60e51b81526004016108f490615c8f565b6126b76138aa565b6126c18285612ea5565b6001600160a01b0388166000908152600160205260409020600201549091506126f0908763ffffffff611c6916565b6001600160a01b038816600090815260016020819052604090912060028101929092558251908201556003015461272d908463ffffffff611c6916565b6001600160a01b03909716600090815260016020526040902060030196909655505050505050565b6001600160a01b0381166127a0576000838152600c60205260408120600581015460039091015461278b9163ffffffff611c6916565b905061279a83826108fc612113565b506127ee565b6000838152600c60205260409020600301546127ce906001600160a01b03831690849063ffffffff61281216565b6000838152600c60205260409020600501546127ee9083906108fc612113565b505050565b60006127fd6138aa565b6128078484612ef2565b90506125c781612f25565b6040516127ee90849063a9059cbb60e01b90611c2c908690869060240161576d565b612846826001600160a01b0316612f34565b6128625760405162461bcd60e51b81526004016108f490615d4f565b60006060836001600160a01b03168360405161287e919061566d565b6000604051808303816000865af19150503d80600081146128bb576040519150601f19603f3d011682016040523d82523d6000602084013e6128c0565b606091505b5091509150816128e25760405162461bcd60e51b81526004016108f4906159ff565b805115611c6357808060200190516128fd9190810190613cbf565b611c635760405162461bcd60e51b81526004016108f490615cdf565b600160ff919091161b1790565b61292e613856565b606061294161293c84612f3a565b612f5f565b80519091506005146129655760405162461bcd60e51b81526004016108f490615a1f565b60006129848260008151811061297757fe5b602002602001015161306e565b9050600081116129a65760405162461bcd60e51b81526004016108f49061587f565b60606129c5836002815181106129b857fe5b6020026020010151612f5f565b905060608151604051908082528060200260200182016040528015612a0457816020015b6129f161388b565b8152602001906001900390816129e95790505b50905060005b8251811015612a4e57612a2f838281518110612a2257fe5b6020026020010151613178565b828281518110612a3b57fe5b6020908102919091010152600101612a0a565b506000612a6e85600481518110612a6157fe5b6020026020010151613215565b90506040518060a00160405280858152602001612a91876001815181106129b857fe5b815260200183815260200186600381518110612aa957fe5b602002602001015181526020018281525095505050505050919050565b600290565b61237961388b565b612adb613784565b60208201515160041015612b015760405162461bcd60e51b81526004016108f49061595f565b604082015151612b235760405162461bcd60e51b81526004016108f4906158cf565b60408201515160041015612b495760405162461bcd60e51b81526004016108f49061594f565b6060826020015151604051908082528060200260200182016040528015612b7a578160200160208202803883390190505b50905060005b836020015151811015612be2576000612ba285602001518381518110612a6157fe5b905080612bc15760405162461bcd60e51b81526004016108f490615bef565b80838381518110612bce57fe5b602090810291909101015250600101612b80565b506060836040015151604051908082528060200260200182016040528015612c2457816020015b612c1161382f565b815260200190600190039081612c095790505b50905060005b846040015151811015612c7657612c5785604001518281518110612c4a57fe5b60200260200101516132a2565b828281518110612c6357fe5b6020908102919091010152600101612c2a565b50612c84846060015161306e565b15612ca15760405162461bcd60e51b81526004016108f49061598f565b6040805160a08101825285518152602081019390935282015260006060820152608080840151908201529050919050565b600080846001600160a01b03168385604051612ced90615685565b600060405180830381858888f193505050503d8060008114612d2b576040519150601f19603f3d011682016040523d82523d6000602084013e612d30565b606091505b50909695505050505050565b6000612d466138aa565b61280784846133b1565b6020015160601c90565b6000815160001415612d7e5760405162461bcd60e51b81526004016108f490615aaf565b6020825181612d8957fe5b0615612da75760405162461bcd60e51b81526004016108f490615cef565b6020825181612db257fe5b0460020a8410612dd45760405162461bcd60e51b81526004016108f490615d6f565b600080600060f81b87604051602001612dee929190615651565b60408051601f198184030181529190528051602091820120915086905b85518111612e975785810151935060028206612e5757604051612e3a90600160f81b908590879060200161561a565b604051602081830303815290604052805190602001209250612e89565b604051612e7090600160f81b908690869060200161561a565b6040516020818303038152906040528051906020012092505b600282049150602001612e0b565b505090931495945050505050565b612ead6138aa565b6000612ec784670de0b6b3a764000063ffffffff611bc716565b90506000612edb828563ffffffff6133e316565b604080516020810190915290815295945050505050565b612efa6138aa565b8251600090612f0f908463ffffffff611bc716565b6040805160208101909152908152949350505050565b51670de0b6b3a7640000900490565b3b151590565b612f426138bd565b506040805180820190915281518152602082810190820152919050565b6060612f6a82613418565b612f865760405162461bcd60e51b81526004016108f490615b9f565b600080612f968460200151613452565b855191935091508214612fbb5760405162461bcd60e51b81526004016108f49061592f565b6000612fc6856135fb565b905060608160405190808252806020026020018201604052801561300457816020015b612ff16138bd565b815260200190600190039081612fe95790505b50602087015190915083016000805b848110156130615761302483613452565b508092505060405180604001604052808381526020018481525084828151811061304a57fe5b602090810291909101015291810191600101613013565b5091979650505050505050565b80516000901580159061308357508151602110155b61309f5760405162461bcd60e51b81526004016108f490615d2f565b6130a882613418565b156130c55760405162461bcd60e51b81526004016108f490615bcf565b6000806130d58460200151613452565b8551919350915082146130fa5760405162461bcd60e51b81526004016108f4906158df565b60208085015182018051838503929091600083901a9184101561312457836020036101000a830492505b81158015613130575084155b1561314d5760405162461bcd60e51b81526004016108f490615adf565b8115801561315b5750600184115b15612d305760405162461bcd60e51b81526004016108f49061589f565b61318061388b565b606061318b83612f5f565b905080516002146131ae5760405162461bcd60e51b81526004016108f490615b7f565b6131b661388b565b60405180604001604052806131d18460008151811061297757fe5b8152602001836001815181106131e357fe5b60200260200101518152509050806000015160001415611c015760405162461bcd60e51b81526004016108f490615c0f565b80516000906021146132395760405162461bcd60e51b81526004016108f490615d0f565b61324282613418565b1561325f5760405162461bcd60e51b81526004016108f490615bcf565b60008061326f8460200151613452565b91509150816021146132935760405162461bcd60e51b81526004016108f490615caf565b60208401510151915050919050565b6132aa61382f565b60606132b98360200151612f5f565b905080516003146132dc5760405162461bcd60e51b81526004016108f4906159af565b6132e461382f565b6040518060800160405280856000015181526020016133168460008151811061330957fe5b6020026020010151613672565b60601b6bffffffffffffffffffffffff1916815260200161333d8460018151811061330957fe5b6001600160a01b0316815260200161335b8460028151811061297757fe5b905260608101519091506133815760405162461bcd60e51b81526004016108f490615a2f565b60208101516bffffffffffffffffffffffff1916611c015760405162461bcd60e51b81526004016108f490615b5f565b6133b96138aa565b60006133d3670de0b6b3a76400008563ffffffff611bc716565b90506125c7818460000151612ea5565b60008082116134045760405162461bcd60e51b81526004016108f490615a8f565b600082848161340f57fe5b04949350505050565b805160009061342957506000611e60565b6020820151805160001a9060c082101561344857600092505050611e60565b5060019392505050565b8051600090819081908190811a60808110156134755760019250600091506135f0565b60808110801590613486575060b881105b156134cf57607e198101925060028314156134c657600186015160001a60808110156134c45760405162461bcd60e51b81526004016108f490615ccf565b505b600191506135f0565b60b881108015906134e0575060c081105b1561355a5760019590950180519095602081900360b7016101000a820480820160b519019450909160001a60b61983018161352d5760405162461bcd60e51b81526004016108f4906159ef565b6037831161354d5760405162461bcd60e51b81526004016108f49061591f565b60010193506135f0915050565b60c0811080159061356b575060f881105b156135805760be1981019250600191506135f0565b60019590950180519095602081900360f7016101000a820480820160f519019450909160001a60f6198301816135c85760405162461bcd60e51b81526004016108f490615b8f565b603783116135e85760405162461bcd60e51b81526004016108f490615b6f565b600101935050505b509092509050915091565b6000806000905060006136118460200151613452565b602086015186519193508084019250015b8082101561366857600061363583613452565b509283019290508183111561365c5760405162461bcd60e51b81526004016108f490615aef565b50600190930192613622565b5091949350505050565b80516000906015146136965760405162461bcd60e51b81526004016108f490615c2f565b61369f82613418565b156136bc5760405162461bcd60e51b81526004016108f490615bcf565b6000806136cc8460200151613452565b91509150816015146136f05760405162461bcd60e51b81526004016108f490615cff565b60208401510151600160601b9004915050919050565b828054600181600116156101000203166002900490600052602060002090601f016020900481019282601f1061374757805160ff1916838001178555613774565b82800160010185558215613774579182015b82811115613774578251825591602001919060010190613759565b506137809291506138d7565b5090565b6040518060a0016040528060008152602001606081526020016060815260200160008152602001600080191681525090565b60405180610100016040528060006001600160a01b0316815260200160008152602001600081526020016000815260200160006001600160a01b0316815260200160008152602001606081526020016000151581525090565b604080516060810182526000808252602082018190529181019190915290565b60408051608081018252600080825260208201819052918101829052606081019190915290565b6040518060a0016040528060008152602001606081526020016060815260200161387e6138bd565b8152600060209091015290565b6040518060400160405280600081526020016138a56138bd565b905290565b6040518060200160405280600081525090565b604051806040016040528060008152602001600081525090565b6106ee91905b8082111561378057600081556001016138dd565b8035611bc181615f29565b8051611bc181615f29565b600082601f83011261391857600080fd5b815161392b61392682615dea565b615dc4565b91508181835260208401935060208101905083856105e084028201111561395157600080fd5b60005b8381101561398057816139678882613a68565b8452506020909201916105e09190910190600101613954565b5050505092915050565b600082601f83011261399b57600080fd5b60046139a961392682615e0a565b915081838560a08402820111156139bf57600080fd5b60005b8381101561398057816139d58882613b42565b84525060209092019160a091909101906001016139c2565b8051611bc181615f3d565b8035611bc181615f46565b8051611bc181615f46565b600082601f830112613a1f57600080fd5b8135613a2d61392682615e27565b91508082526020830160208301858383011115613a4957600080fd5b613a54838284615ed0565b50505092915050565b8051611bc181615f4f565b60006105e08284031215613a7b57600080fd5b613a86610120615dc4565b90506000613a9484846139ed565b8252506020613aa584848301613bd0565b6020830152506040613ab984828501613a03565b6040830152506060613acd84828501613a03565b6060830152506080613ae18482850161398a565b608083015250610300613af68482850161398a565b60a083015250610580613b0b848285016138fc565b60c0830152506105a0613b2084828501613a03565b60e0830152506105c0613b3584828501613a03565b6101008301525092915050565b600060a08284031215613b5457600080fd5b613b5e60a0615dc4565b90506000613b6c8484613a03565b8252506020613b7d848483016138fc565b6020830152506040613b91848285016138fc565b6040830152506060613ba584828501613a03565b6060830152506080613bb984828501613a03565b60808301525092915050565b8035611bc181615f58565b8051611bc181615f61565b8051611bc181615f6a565b600060208284031215613bf857600080fd5b60006125c784846138f1565b600080600060608486031215613c1957600080fd5b6000613c2586866138f1565b9350506020613c36868287016138f1565b9250506040613c47868287016139f8565b9150509250925092565b60008060408385031215613c6457600080fd5b6000613c7085856138f1565b9250506020613c81858286016139f8565b9150509250929050565b600060208284031215613c9d57600080fd5b81516001600160401b03811115613cb357600080fd5b6125c784828501613907565b600060208284031215613cd157600080fd5b60006125c784846139ed565b60008060408385031215613cf057600080fd5b6000613cfc8585613a03565b9250506020613c8185828601613a03565b600060208284031215613d1f57600080fd5b60006125c78484613a5d565b600060208284031215613d3d57600080fd5b60006125c784846139f8565b600060208284031215613d5b57600080fd5b60006125c78484613a03565b60008060408385031215613d7a57600080fd5b6000613d8685856139f8565b92505060208301356001600160401b03811115613da257600080fd5b613c8185828601613a0e565b600080600060608486031215613dc357600080fd5b6000613dcf86866139f8565b93505060208401356001600160401b03811115613deb57600080fd5b613df786828701613a0e565b92505060408401356001600160401b03811115613e1357600080fd5b613c4786828701613a0e565b600080600080600080600060e0888a031215613e3a57600080fd5b6000613e468a8a6139f8565b97505060208801356001600160401b03811115613e6257600080fd5b613e6e8a828b01613a0e565b9650506040613e7f8a828b01613bc5565b95505060608801356001600160401b03811115613e9b57600080fd5b613ea78a828b01613a0e565b9450506080613eb88a828b01613bc5565b93505060a08801356001600160401b03811115613ed457600080fd5b613ee08a828b01613a0e565b92505060c0613ef18a828b016139f8565b91505092959891949750929550565b60008060008060808587031215613f1657600080fd5b6000613f2287876139f8565b9450506020613f33878288016139f8565b93505060408501356001600160401b03811115613f4f57600080fd5b613f5b87828801613a0e565b92505060608501356001600160401b03811115613f7757600080fd5b613f8387828801613a0e565b91505092959194509250565b600060208284031215613fa157600080fd5b60006125c78484613bdb565b6000613fb983836155e1565b505060200190565b613fca81615eba565b82525050565b613fca81615e6d565b613fca613fe582615e6d565b615f08565b6000613ff582615e60565b613fff8185615e64565b935061400a83615e4e565b8060005b838110156140385781516140228882613fad565b975061402d83615e4e565b92505060010161400e565b509495945050505050565b613fca81615e78565b613fca61405882615e7d565b6106ee565b613fca614058826106ee565b600061407482615e60565b61407e8185615e64565b935061408e818560208601615edc565b61409781615f19565b9093019392505050565b60006140ac82615e60565b6140b68185611e60565b93506140c6818560208601615edc565b9290920192915050565b6000815460018116600081146140ed57600181146141105761414f565b607f60028304166140fe8187611e60565b60ff198416815295508501925061414f565b6002820461411e8187611e60565b955061412985615e54565b60005b828110156141485781548882015260019091019060200161412c565b5050850192505b505092915050565b613fca81615e8a565b600061416d601e83615e64565b7f5472616e73616374696f6e2074797065206d757374206e6f7420626520300000815260200192915050565b60006141a6602183615e64565b7f57726f6e6720616d6f756e742073656e7420746f20717561736172206f776e658152603960f91b602082015260400192915050565b60006141e9601983615e64565b7f4c656164696e67207a65726f732061726520696e76616c696400000000000000815260200192915050565b6000614222603483615e64565b7f626c6f636b4e756d2065786365656473206d61782073697a6520616c6c6f77658152736420696e20506c61736d614672616d65776f726b60601b602082015260400192915050565b6000614278601e83615e64565b7f4e6f742063616c6c656420627920746865207469636b6574206f776e65720000815260200192915050565b60006142b1602183615e64565b7f5472616e73616374696f6e2063616e6e6f7420686176652030206f75747075748152607360f81b602082015260400192915050565b60006142f4603a83615e64565b7f4465636f646564206974656d206c656e677468206d757374206265206571756181527f6c20746f2074686520696e7075742064617461206c656e677468000000000000602082015260400192915050565b6000614353602283615e64565b7f7478496e6465782065786365656473207468652073697a65206f662075696e74815261189b60f11b602082015260400192915050565b6000614397601a83615e64565b7f4f757470757420696e646578206f7574206f6620626f756e6473000000000000815260200192915050565b60006143d0604083615e64565b7f546865206368616c6c656e67696e67207472616e73616374696f6e206973207481527f68652073616d652061732074686520636c61696d207472616e73616374696f6e602082015260400192915050565b600061442f602083615e64565b7f496e76616c6964206c656e67746820666f722061206c6f6e6720737472696e67815260200192915050565b6000614468602683615e64565b7f4465636f64656420524c50206c656e67746820666f72206c69737420697320698152651b9d985b1a5960d21b602082015260400192915050565b60006144b0602c83615e64565b7f52657175657374656420616d6f756e742065786365656473207468652055736181526b626c65204c6971756469747960a01b602082015260400192915050565b60006144fe602583615e64565b7f5472616e73616374696f6e206f757470757473206e756d2065786365656473208152641b1a5b5a5d60da1b602082015260400192915050565b6000614545602483615e64565b7f5472616e73616374696f6e20696e70757473206e756d2065786365656473206c8152631a5b5a5d60e21b602082015260400192915050565b600061458b601483615e64565b73109bdb990815985b1d59481a5b98dbdc9c9958dd60621b815260200192915050565b60006145bb601e83615e64565b7f54686520636c61696d206973206e6f742066696e616c697a6564207965740000815260200192915050565b60006145f4601083615e64565b6f0747844617461206d75737420626520360841b815260200192915050565b6000614620601b83615e64565b7f536166654d6174683a206164646974696f6e206f766572666c6f770000000000815260200192915050565b6000614659601d83615e64565b7f4f75747075742064617461206d75737420686176652033206974656d73000000815260200192915050565b6000614692602b83615e64565b7f546865206f7574707574206973206e6f74206f776e656420627920746865207181526a3ab0b9b0b91037bbb732b960a91b602082015260400192915050565b60006146df602183615e64565b7f546865205554584f2068617320616c7265616479206265656e20636c61696d658152601960fa1b602082015260400192915050565b6000614722601c83615e64565b7f546865206368616c6c656e676520706572696f64206973206f76657200000000815260200192915050565b600061475b603f83615e64565b7f496e76616c6964206c656164696e67207a65726f7320696e206c656e6774682081527f6f6620746865206c656e67746820666f722061206c6f6e6720737472696e6700602082015260400192915050565b60006147ba602083615e64565b7f5361666545524332303a206c6f772d6c6576656c2063616c6c206661696c6564815260200192915050565b60006147f3602683615e64565b7f546865205554584f2069736e277420656e6f75676820746f20636f766572207481526568652066656560d01b602082015260400192915050565b600061483b601f83615e64565b7f496e76616c696420656e636f64696e67206f66207472616e73616374696f6e00815260200192915050565b6000614874601b83615e64565b7f4f757470757420616d6f756e74206d757374206e6f7420626520300000000000815260200192915050565b60006148ad601e83615e64565b7f536166654d6174683a207375627472616374696f6e206f766572666c6f770000815260200192915050565b60006148e6601983615e64565b7f5370656e64696e6720636f6e646974696f6e206661696c656400000000000000815260200192915050565b600061491f603183615e64565b7f4f6e6c792074686520517561736172204d61696e7461696e65722063616e20698152701b9d9bdad9481d1a1a5cc81b595d1a1bd9607a1b602082015260400192915050565b6000614972602b83615e64565b7f416d6f756e742073686f756c64206265206c6f776572207468616e20636c616981526a6d61626c652066756e647360a81b602082015260400192915050565b60006149bf602283615e64565b7f576173206e6f742063616c6c656420627920746865204f7574707574206f776e81526132b960f11b602082015260400192915050565b6000614a03601a83615e64565b7f536166654d6174683a206469766973696f6e206279207a65726f000000000000815260200192915050565b6000614a3c601c83615e64565b7f496e76616c6964207472616e73616374696f6e20706f736974696f6e00000000815260200192915050565b6000614a75601e83615e64565b7f4d65726b6c652070726f6f66206d757374206e6f7420626520656d7074790000815260200192915050565b6000614aae602c83615e64565b7f4661696c656420746f206765742074686520726f6f742068617368206f66207481526b686520626c6f636b206e756d60a01b602082015260400192915050565b6000614afc602783615e64565b7f536166654574685472616e736665723a206661696c656420746f207472616e738152660cccae4408aa8960cb1b602082015260400192915050565b6000614b45602283615e64565b7f5363616c617220302073686f756c6420626520656e636f646564206173203078815261038360f41b602082015260400192915050565b6000614b89604883615e64565b7f496e76616c6964206465636f646564206c656e677468206f6620524c5020697481527f656d20666f756e6420647572696e6720636f756e74696e67206974656d7320696020820152671b8818481b1a5cdd60c21b604082015260600192915050565b6000614bf9602683615e64565b7f51546f6b656e206973206e6f74207265676973746572656420666f7220746865815265103a37b5b2b760d11b602082015260400192915050565b6000614c41601b83615e64565b7f49464520436c61696d20706572696f6420686173207061737365640000000000815260200192915050565b6000614c7a601983615e64565b7f50726f766964656420547820646f65736e277420657869737400000000000000815260200192915050565b6000614cb3601e83615e64565b7f54686520636c61696d206973206e6f74206368616c6c656e676561626c650000815260200192915050565b6000614cec600f83615e64565b6e105b1c9958591e4818db185a5b5959608a1b815260200192915050565b6000614d17602183615e64565b7f536166654d6174683a206d756c7469706c69636174696f6e206f766572666c6f8152607760f81b602082015260400192915050565b6000614d5a602083615e64565b7f4f7574707574206f75747075744775617264206d757374206e6f742062652030815260200192915050565b6000614d93601e83615e64565b7f496e76616c6964206c656e67746820666f722061206c6f6e67206c6973740000815260200192915050565b6000614dcc601883615e64565b7f4f7574707574206d75737420686176652032206974656d730000000000000000815260200192915050565b6000614e05603d83615e64565b7f496e76616c6964206c656164696e67207a65726f7320696e206c656e6774682081527f6f6620746865206c656e67746820666f722061206c6f6e67206c697374000000602082015260400192915050565b6000614e64601283615e64565b71125d195b481a5cc81b9bdd0818481b1a5cdd60721b815260200192915050565b6000614e92601883615e64565b7f49464520686173206e6f74206265656e20737461727465640000000000000000815260200192915050565b6000614ecb603783615e64565b7f54686520636c61696d207472616e73616374696f6e20646f6573206e6f74207381527f70656e642074686520636f7272656374206f7574707574000000000000000000602082015260400192915050565b6000614f2a601783615e64565b7f4974656d206d757374206e6f742062652061206c697374000000000000000000815260200192915050565b6000614f63603083615e64565b7f54686520636c61696d2068617320616c7265616479206265656e20636c61696d81526f1959081bdc8818da185b1b195b99d95960821b602082015260400192915050565b6000614fb5601683615e64565b75139d5b1b081a5b9c1d5d081b9bdd08185b1b1bddd95960521b815260200192915050565b6000614fe7602583615e64565b7f5370656e64696e6720636f6e646974696f6e20636f6e7472616374206e6f7420815264199bdd5b9960da1b602082015260400192915050565b600061502e601983615e64565b7f4f75747075742074797065206d757374206e6f74206265203000000000000000815260200192915050565b6000615067601383615e64565b72151a58dad95d081a5cc81b9bdd081d985b1a59606a1b815260200192915050565b6000615096601683615e64565b754974656d206c656e677468206d75737420626520323160501b815260200192915050565b60006150c8602083615e64565b7f57726f6e6720746f6b656e2073656e7420746f20717561736172206f776e6572815260200192915050565b6000615101601d83615e64565b7f5468652051756173617220636f6e747261637420697320706175736564000000815260200192915050565b600061513a602683615e64565b7f546865206368616c6c656e67696e67207472616e73616374696f6e20697320698152651b9d985b1a5960d21b602082015260400192915050565b6000611bc1600083611e60565b600061518f602383615e64565b7f5469636b6574207374696c6c2076616c6964206f7220646f65736e27742065788152621a5cdd60ea1b602082015260400192915050565b60006151d4602383615e64565b7f51546f6b656e20666f722074686520746f6b656e20616c72656164792065786981526273747360e81b602082015260400192915050565b6000615219602283615e64565b7f49737375652077697468207570646174696e672045786368616e676520526174815261032960f51b602082015260400192915050565b600061525d601e83615e64565b7f54686973205554584f20616c7265616479206861732061207469636b65740000815260200192915050565b6000615296601e83615e64565b7f4465636f646564206974656d206c656e677468206d7573742062652033330000815260200192915050565b60006152cf601983615e64565b7f4e6f7420656e6f7567682071546f6b656e2042616c616e636500000000000000815260200192915050565b6000615308601d83615e64565b7f496e76616c69642073686f727420737472696e6720656e636f64696e67000000815260200192915050565b6000615341602a83615e64565b7f5361666545524332303a204552433230206f7065726174696f6e20646964206e8152691bdd081cdd58d8d9595960b21b602082015260400192915050565b600061538d602f83615e64565b7f4c656e677468206f66204d65726b6c652070726f6f66206d757374206265206181526e1036bab63a34b836329037b310199960891b602082015260400192915050565b60006153de601e83615e64565b7f4465636f646564206974656d206c656e677468206d7573742062652032310000815260200192915050565b6000615417601683615e64565b754974656d206c656e677468206d75737420626520333360501b815260200192915050565b6000615449603283615e64565b7f546865205554584f2069732066726f6d206120626c6f636b206c6174657220748152711a185b881d1a19481cd85999481b1a5b5a5d60721b602082015260400192915050565b600061549d602a83615e64565b7f4974656d206c656e677468206d757374206265206265747765656e203120616e8152696420333320627974657360b01b602082015260400192915050565b60006154e9602c83615e64565b7f4d6f7265567046696e616c697a6174696f6e3a206e6f742061204d6f7265565081526b040e0e4dee8dec6ded840e8f60a31b602082015260400192915050565b6000615537601f83615e64565b7f5361666545524332303a2063616c6c20746f206e6f6e2d636f6e747261637400815260200192915050565b6000615570601483615e64565b73496e636f72726563742053656e6465724461746160601b815260200192915050565b60006155a0602c83615e64565b7f496e64657820646f6573206e6f74206d6174636820746865206c656e6774682081526b37b3103a343290383937b7b360a11b602082015260400192915050565b613fca81615e9c565b613fca81615e95565b613fca816106ee565b613fca81615ec5565b60006156118284613fd9565b50601401919050565b6000615626828661404c565b600182019150615636828561405d565b602082019150615646828461405d565b506020019392505050565b600061565d828561404c565b6001820191506125c782846140a1565b6000611c0182846140a1565b6000611c0182846140d0565b6000611bc182615175565b60208101611bc18284613fd0565b60208101611bc18284613fc1565b604081016156ba8285613fc1565b611c0160208301846155f3565b61010081016156d6828b613fd0565b6156e3602083018a6155f3565b6156f060408301896155f3565b6156fd60608301886155f3565b61570a6080830187613fd0565b61571760a08301866155f3565b81810360c08301526157298185614069565b905061573860e0830184614043565b9998505050505050505050565b606081016157538286613fd0565b6157606020830185613fd0565b6125c760408301846155f3565b604081016156ba8285613fd0565b60a081016157898288613fd0565b61579660208301876155f3565b6157a360408301866155f3565b6157b060608301856155f3565b6157bd60808301846155f3565b9695505050505050565b60208082528101611c018184613fea565b60208101611bc18284614043565b60a080825281016157f78188614069565b905061580660208301876155f3565b81810360408301526158188186614069565b905061582760608301856155ea565b81810360808301526158398184614069565b979650505050505050565b606080825281016158558186614069565b905061586460208301856155f3565b6125c76040830184614043565b60208101611bc18284614157565b60208082528101611e5d81614160565b60208082528101611e5d81614199565b60208082528101611e5d816141dc565b60208082528101611e5d81614215565b60208082528101611e5d8161426b565b60208082528101611e5d816142a4565b60208082528101611e5d816142e7565b60208082528101611e5d81614346565b60208082528101611e5d8161438a565b60208082528101611e5d816143c3565b60208082528101611e5d81614422565b60208082528101611e5d8161445b565b60208082528101611e5d816144a3565b60208082528101611e5d816144f1565b60208082528101611e5d81614538565b60208082528101611e5d8161457e565b60208082528101611e5d816145ae565b60208082528101611e5d816145e7565b60208082528101611e5d81614613565b60208082528101611e5d8161464c565b60208082528101611e5d81614685565b60208082528101611e5d816146d2565b60208082528101611e5d81614715565b60208082528101611e5d8161474e565b60208082528101611e5d816147ad565b60208082528101611e5d816147e6565b60208082528101611e5d8161482e565b60208082528101611e5d81614867565b60208082528101611e5d816148a0565b60208082528101611e5d816148d9565b60208082528101611e5d81614912565b60208082528101611e5d81614965565b60208082528101611e5d816149b2565b60208082528101611e5d816149f6565b60208082528101611e5d81614a2f565b60208082528101611e5d81614a68565b60208082528101611e5d81614aa1565b60208082528101611e5d81614aef565b60208082528101611e5d81614b38565b60208082528101611e5d81614b7c565b60208082528101611e5d81614bec565b60208082528101611e5d81614c34565b60208082528101611e5d81614c6d565b60208082528101611e5d81614ca6565b60208082528101611e5d81614cdf565b60208082528101611e5d81614d0a565b60208082528101611e5d81614d4d565b60208082528101611e5d81614d86565b60208082528101611e5d81614dbf565b60208082528101611e5d81614df8565b60208082528101611e5d81614e57565b60208082528101611e5d81614e85565b60208082528101611e5d81614ebe565b60208082528101611e5d81614f1d565b60208082528101611e5d81614f56565b60208082528101611e5d81614fa8565b60208082528101611e5d81614fda565b60208082528101611e5d81615021565b60208082528101611e5d8161505a565b60208082528101611e5d81615089565b60208082528101611e5d816150bb565b60208082528101611e5d816150f4565b60208082528101611e5d8161512d565b60208082528101611e5d81615182565b60208082528101611e5d816151c7565b60208082528101611e5d8161520c565b60208082528101611e5d81615250565b60208082528101611e5d81615289565b60208082528101611e5d816152c2565b60208082528101611e5d816152fb565b60208082528101611e5d81615334565b60208082528101611e5d81615380565b60208082528101611e5d816153d1565b60208082528101611e5d8161540a565b60208082528101611e5d8161543c565b60208082528101611e5d81615490565b60208082528101611e5d816154dc565b60208082528101611e5d8161552a565b60208082528101611e5d81615563565b60208082528101611e5d81615593565b60208101611bc182846155f3565b60408101615d9b82856155f3565b611c0160208301846155e1565b604081016156ba82856155f3565b60208101611bc182846155fc565b6040518181016001600160401b0381118282101715615de257600080fd5b604052919050565b60006001600160401b03821115615e0057600080fd5b5060209081020190565b60006001600160401b03821115615e2057600080fd5b5060200290565b60006001600160401b03821115615e3d57600080fd5b506020601f91909101601f19160190565b60200190565b60009081526020902090565b5190565b90815260200190565b6000611e5d82615e9c565b151590565b6001600160f81b03191690565b6000611e5d82615e6d565b61ffff1690565b6001600160a01b031690565b6001600160401b031690565b60ff1690565b6000611e5d82615e8a565b6000611e5d82615ea8565b82818337506000910152565b60005b83811015615ef7578181015183820152602001615edf565b83811115611c635750506000910152565b6000611e5d826000611e5d82615f23565b601f01601f191690565b60601b90565b615f3281615e6d565b811461162d57600080fd5b615f3281615e78565b615f32816106ee565b615f3281615e8a565b615f3281615e95565b615f3281615ea8565b615f3281615eb456fea365627a7a72315820d2224369c0ed29600bf5e263f05e7cb4d25abd77b8ff32e6f40d637b99b941456c6578706572696d656e74616cf564736f6c634300050b0040",
  "source": "pragma solidity 0.5.11;\npragma experimental ABIEncoderV2;\n\nimport \"./QuasarPool.sol\";\nimport \"../../src/framework/PlasmaFramework.sol\";\nimport \"../../src/exits/payment/PaymentExitGame.sol\";\nimport \"../../src/utils/PosLib.sol\";\nimport \"../../src/utils/Merkle.sol\";\nimport \"../../src/exits/utils/ExitId.sol\";\nimport \"../../src/exits/payment/routers/PaymentInFlightExitRouter.sol\";\nimport \"../../src/utils/SafeEthTransfer.sol\";\nimport \"../../src/transactions/PaymentTransactionModel.sol\";\nimport \"../../src/transactions/GenericTransaction.sol\";\nimport \"../../src/exits/utils/MoreVpFinalization.sol\";\nimport \"../../src/exits/interfaces/ISpendingCondition.sol\";\nimport \"../../src/exits/registries/SpendingConditionRegistry.sol\";\nimport \"openzeppelin-solidity/contracts/math/SafeMath.sol\";\nimport \"openzeppelin-solidity/contracts/token/ERC20/IERC20.sol\";\nimport \"openzeppelin-solidity/contracts/token/ERC20/SafeERC20.sol\";\n\n/**\n * @title Quasar Contract\n * Implementation Doc - https://github.com/omgnetwork/research-workshop/blob/master/Incognito_fast_withdrawals.md\n*/\ncontract Quasar is QuasarPool {\n    using SafeERC20 for IERC20;\n    using SafeMath for uint256;\n    using SafeMath for uint64;\n    using PosLib for PosLib.Position;\n\n    PlasmaFramework public plasmaFramework;\n    // This contract works with the current exit game\n    // Any changes to the exit game would require modifications to this contract\n    // Verify the exit game before interacting\n    PaymentExitGame public paymentExitGame;\n    SpendingConditionRegistry public spendingConditionRegistry;\n\n    address public quasarOwner;\n    uint256 public safeBlockMargin;\n    uint256 public waitingPeriod;\n    uint256 constant public TICKET_VALIDITY_PERIOD = 14400;\n    uint256 constant public IFE_CLAIM_MARGIN = 28800;\n    // 7+1 days waiting period for IFE Claims\n    uint256 constant public IFE_CLAIM_WAITING_PERIOD = 691200;\n    uint256 public bondValue;\n    // bond is added to this reserve only when tickets are flushed, bond is returned every other time\n    uint256 public unclaimedBonds;\n    bool public isPaused;\n\n    // outputValue is the size of the output\n    // reservedAmount is the liquid funds withdrawable\n    struct Ticket {\n        address payable outputOwner;\n        uint256 validityTimestamp;\n        uint256 outputValue;\n        uint256 reservedAmount;\n        address token;\n        uint256 bondValue;\n        bytes rlpOutputCreationTx;\n        bool isClaimed;\n    }\n\n    struct Claim {\n        bytes rlpClaimTx;\n        uint256 finalizationTimestamp;\n        bool isValid;\n    }\n\n    mapping (uint256 => Ticket) public ticketData;\n    mapping (uint256 => Claim) public ifeClaimData;\n\n    event NewTicketObtained(uint256 utxoPos);\n    event IFEClaimSubmitted(uint256 utxoPos, uint160 exitId);\n\n    modifier onlyWhenNotPaused() {\n        require(!isPaused, \"The Quasar contract is paused\");\n        _;\n    }\n\n    /**\n     * @dev Constructor, takes params to set up quasar contract\n     * @param plasmaFrameworkContract Plasma Framework contract address\n     * @param _quasarOwner Receiver address on Plasma\n     * @param _safeBlockMargin The Quasar will not accept exits for outputs younger than the current plasma block minus the safe block margin \n     * @param _waitingPeriod Waiting period from submission to processing claim\n     * @param _bondValue bond to obtain tickets\n    */\n    constructor (\n        address plasmaFrameworkContract, \n        address spendingConditionRegistryContract, \n        address _quasarOwner, \n        uint256 _safeBlockMargin, \n        uint256 _waitingPeriod, \n        uint256 _bondValue\n    ) public {\n        plasmaFramework = PlasmaFramework(plasmaFrameworkContract);\n        paymentExitGame = PaymentExitGame(plasmaFramework.exitGames(1));\n        spendingConditionRegistry = SpendingConditionRegistry(spendingConditionRegistryContract);\n        quasarOwner = _quasarOwner;\n        quasarMaintainer = msg.sender;\n        safeBlockMargin = _safeBlockMargin;\n        waitingPeriod = _waitingPeriod;\n        bondValue = _bondValue;\n        unclaimedBonds = 0;\n    }\n\n    /**\n     * @return  The latest safe block number\n    */\n    function getLatestSafeBlock() public view returns(uint256) {\n        uint256 childBlockInterval = plasmaFramework.childBlockInterval();\n        uint currentPlasmaBlock = plasmaFramework.nextChildBlock().sub(childBlockInterval);\n        return currentPlasmaBlock.sub(safeBlockMargin.mul(childBlockInterval));\n    }\n\n    ////////////////////////////////////////////\t\n    // Maintenance methods\t\n    ////////////////////////////////////////////\n    /**\n     * @dev Set the safe block margin.\n     * @param margin the new safe block margin\n    */\n    function setSafeBlockMargin (uint256 margin) public onlyQuasarMaintainer() {\n        safeBlockMargin = margin;\n    }\n\n    /**\n     * @dev Flush an expired ticket to free up reserved funds\n     * @notice Only an unclaimed ticket can be flushed, bond amount is added to unclaimedBonds\n     * @param utxoPos pos of the output, which is the ticket identifier\n    */\n    function flushExpiredTicket(uint256 utxoPos) public {\n        uint256 expiryTimestamp = ticketData[utxoPos].validityTimestamp;\n        require(!ticketData[utxoPos].isClaimed, \"The UTXO has already been claimed\");\n        require(block.timestamp > expiryTimestamp && expiryTimestamp != 0, \"Ticket still valid or doesn't exist\");\n\n        uint256 tokenAmount = ticketData[utxoPos].reservedAmount;\n        ticketData[utxoPos].reservedAmount = 0;\n        ticketData[utxoPos].validityTimestamp = 0;\n        tokenUsableCapacity[ticketData[utxoPos].token] = tokenUsableCapacity[ticketData[utxoPos].token].add(tokenAmount);\n        unclaimedBonds = unclaimedBonds.add(ticketData[utxoPos].bondValue); \n    }\n\n    /**\n     * @dev Pause contract in a byzantine state\n    */\n    function pauseQuasar() public onlyQuasarMaintainer() {\n        isPaused = true;\n    }\n\n    /**\n     * @dev Unpause contract and allow tickets\n    */\n    function resumeQuasar() public onlyQuasarMaintainer() {\n        isPaused = false;\n    }\n\n    /**\n     * @dev Withdraw Unclaimed bonds from the contract\n    */\n    function withdrawUnclaimedBonds() public onlyQuasarMaintainer() {\n        uint256 amount = unclaimedBonds;\n        unclaimedBonds = 0;\n        SafeEthTransfer.transferRevertOnError(msg.sender, amount, SAFE_GAS_STIPEND);\n    }\n\n    ////////////////////////////////////////////\t\n    // Exit procedure\t\n    ////////////////////////////////////////////\n    /**\n     * @dev Obtain a ticket from the Quasar\n     * @notice Ticket is valid for four hours, pay bond here for obtaining ticket\n     * @param utxoPos Output that will be spent to the quasar later, is the ticket identifier\n     * @param rlpOutputCreationTx RLP-encoded transaction that created the output\n     * @param outputCreationTxInclusionProof Transaction inclusion proof\n    */\n    function obtainTicket(uint256 utxoPos, bytes memory rlpOutputCreationTx, bytes memory outputCreationTxInclusionProof) public payable onlyWhenNotPaused() {\n        require(msg.value == bondValue, \"Bond Value incorrect\");\n        require(!ticketData[utxoPos].isClaimed, \"The UTXO has already been claimed\");\n        require(ticketData[utxoPos].validityTimestamp == 0, \"This UTXO already has a ticket\");\n\n        PosLib.Position memory utxoPosDecoded = PosLib.decode(utxoPos);\n\n        require(utxoPosDecoded.blockNum <= getLatestSafeBlock(), \"The UTXO is from a block later than the safe limit\");\n\n        PaymentTransactionModel.Transaction memory decodedTx\n        = PaymentTransactionModel.decode(rlpOutputCreationTx);\n\n        FungibleTokenOutputModel.Output memory outputData\n        = PaymentTransactionModel.getOutput(decodedTx, utxoPosDecoded.outputIndex);\n        \n        // verify the owner of output is obtaining the ticket\n        require(verifyOwnership(outputData, msg.sender), \"Was not called by the Output owner\");\n\n        require(MoreVpFinalization.isStandardFinalized(\n            plasmaFramework,\n            rlpOutputCreationTx,\n            utxoPosDecoded.toStrictTxPos(),\n            outputCreationTxInclusionProof\n        ), \"Provided Tx doesn't exist\");\n\n        uint256 quasarFee = tokenData[outputData.token].quasarFee;\n\n        require(outputData.amount > quasarFee, \"The UTXO isn't enough to cover the fee\");\n        uint256 reservedAmount = outputData.amount.sub(quasarFee);\n        require(reservedAmount <= tokenUsableCapacity[outputData.token], \"Requested amount exceeds the Usable Liqudity\");\n\n        tokenUsableCapacity[outputData.token] = tokenUsableCapacity[outputData.token].sub(reservedAmount);\n        ticketData[utxoPos] = Ticket(msg.sender, block.timestamp.add(TICKET_VALIDITY_PERIOD), outputData.amount, reservedAmount, outputData.token, msg.value, rlpOutputCreationTx, false);\n        emit NewTicketObtained(utxoPos);\n    }\n\n    // for simplicity fee has to be from a seperate input in the tx to quasar\n    /**\n     * @dev Submit claim after spending the output to the quasar owner\n     * @param utxoPos pos of the output, which is the ticket identifier\n     * @param utxoPosQuasarOwner pos of the quasar owner's output\n     * @param rlpTxToQuasarOwner RLP-encoded transaction that spends the output to quasar owner\n     * @param txToQuasarOwnerInclusionProof Transaction Inclusion proof\n    */\n    function claim(\n        uint256 utxoPos,\n        uint256 utxoPosQuasarOwner,\n        bytes memory rlpTxToQuasarOwner,\n        bytes memory txToQuasarOwnerInclusionProof\n    ) public {\n        verifyTicketValidityForClaim(utxoPos);\n\n        verifyClaimTxCorrectlyFormed(utxoPos, rlpTxToQuasarOwner);\n\n        PosLib.Position memory utxoQuasarOwnerDecoded = PosLib.decode(utxoPosQuasarOwner);\n        require(MoreVpFinalization.isStandardFinalized(\n            plasmaFramework,\n            rlpTxToQuasarOwner,\n            utxoQuasarOwnerDecoded.toStrictTxPos(),\n            txToQuasarOwnerInclusionProof\n        ), \"Provided Tx doesn't exist\");\n\n        ticketData[utxoPos].isClaimed = true;\n\n        utilize(ticketData[utxoPos].token, ticketData[utxoPos].outputValue);\n        \n        runPayout(utxoPos, ticketData[utxoPos].outputOwner, ticketData[utxoPos].token);\n    }\n\n    /**\n     * @dev Submit an IFE claim for claims without inclusion proof\n     * @param utxoPos pos of the output, which is the ticket identifier\n     * @param inFlightClaimTx in-flight tx that spends the output to quasar owner\n    */\n    function ifeClaim(uint256 utxoPos, bytes memory inFlightClaimTx) public {\n        verifyTicketValidityForClaim(utxoPos);\n\n        verifyClaimTxCorrectlyFormed(utxoPos, inFlightClaimTx);\n\n        //verify IFE started\n        uint160 exitId = ExitId.getInFlightExitId(inFlightClaimTx);\n        uint160[] memory exitIdArr = new uint160[](1);\n        exitIdArr[0] = exitId;\n        PaymentExitDataModel.InFlightExit[] memory ifeData = paymentExitGame.inFlightExits(exitIdArr);\n        require(ifeData[0].exitStartTimestamp != 0, \"IFE has not been started\");\n\n        // IFE claims should start within IFE_CLAIM_MARGIN from starting IFE to enable sufficient time to piggyback\n        // this might be overriden by the ticket expiry check usually, except if the ticket is obtained later\n        require(block.timestamp <= ifeData[0].exitStartTimestamp.add(IFE_CLAIM_MARGIN), \"IFE Claim period has passed\");\n\n        ticketData[utxoPos].isClaimed = true;\n        ifeClaimData[utxoPos] = Claim(inFlightClaimTx, block.timestamp.add(IFE_CLAIM_WAITING_PERIOD), true);\n        emit IFEClaimSubmitted(utxoPos, exitId);\n    }\n\n    /**\n     * @dev Challenge an IFE claim\n     * @notice A challenge is required if any of the claimTx's inputs are double spent\n     * @param utxoPos pos of the output, which is the ticket identifier\n     * @param rlpChallengeTx RLP-encoded challenge transaction\n     * @param challengeTxInputIndex index pos of the same utxo in the challenge transaction\n     * @param challengeTxWitness Witness for challenging transaction\n     * @param otherInputIndex (optional) index pos of another input from the claimTx that is spent\n     * @param otherInputCreationTx (optional) Transaction that created this shared input\n     * @param senderData A keccak256 hash of the sender's address\n    */\n    function challengeIfeClaim(\n        uint256 utxoPos,\n        bytes memory rlpChallengeTx,\n        uint16 challengeTxInputIndex,\n        bytes memory challengeTxWitness,\n        uint16 otherInputIndex,\n        bytes memory otherInputCreationTx,\n        bytes32 senderData\n    ) public {\n        require(senderData == keccak256(abi.encodePacked(msg.sender)), \"Incorrect SenderData\");\n        require(ticketData[utxoPos].isClaimed && ifeClaimData[utxoPos].isValid, \"The claim is not challengeable\");\n        require(block.timestamp <= ifeClaimData[utxoPos].finalizationTimestamp, \"The challenge period is over\");\n        require(\n            keccak256(ifeClaimData[utxoPos].rlpClaimTx) != keccak256(rlpChallengeTx),\n            \"The challenging transaction is the same as the claim transaction\"\n        );\n\n        require(MoreVpFinalization.isProtocolFinalized(\n            plasmaFramework,\n            rlpChallengeTx\n        ), \"The challenging transaction is invalid\");\n\n        if (otherInputCreationTx.length == 0) {\n            verifySpendingCondition(utxoPos, ticketData[utxoPos].rlpOutputCreationTx, rlpChallengeTx, challengeTxInputIndex, challengeTxWitness);\n        } else {\n            PaymentTransactionModel.Transaction memory decodedTx\n            = PaymentTransactionModel.decode(ifeClaimData[utxoPos].rlpClaimTx);\n\n            verifySpendingCondition(uint256(decodedTx.inputs[otherInputIndex]), otherInputCreationTx, rlpChallengeTx, challengeTxInputIndex, challengeTxWitness);\n        }\n\n        ifeClaimData[utxoPos].isValid = false;\n        Ticket memory ticket = ticketData[utxoPos];\n        tokenUsableCapacity[ticket.token] = tokenUsableCapacity[ticket.token].add(ticket.reservedAmount);\n        SafeEthTransfer.transferRevertOnError(msg.sender, ticket.bondValue, SAFE_GAS_STIPEND);\n    }\n\n    /**\n     * @dev Process the IFE claim to get liquid funds\n     * @param utxoPos pos of the output, which is the ticket identifier\n    */\n    function processIfeClaim(uint256 utxoPos) public {\n        require(block.timestamp > ifeClaimData[utxoPos].finalizationTimestamp, \"The claim is not finalized yet\");\n        require(ifeClaimData[utxoPos].isValid, \"The claim has already been claimed or challenged\");\n        ifeClaimData[utxoPos].isValid = false;\n\n        utilize(ticketData[utxoPos].token, ticketData[utxoPos].outputValue);\n\n        runPayout(utxoPos, ticketData[utxoPos].outputOwner, ticketData[utxoPos].token);\n    }\n\n    ////////////////////////////////////////////\t\n    // Helper methods\t\n    ////////////////////////////////////////////\n    /**\n     * @dev Verify the owner of the output\n     * @param output Output Data\n     * @param expectedOutputOwner expected owner of the output\n    */\n    function verifyOwnership(FungibleTokenOutputModel.Output memory output, address expectedOutputOwner) private pure returns(bool) {\n        address outputOwner = PaymentTransactionModel.getOutputOwner(output);\n        return outputOwner == expectedOutputOwner;\n    }\n\n    /**\n     * @dev Verify the challengeTx spends the output\n     * @param utxoPos pos of the output\n     * @param rlpOutputCreationTx transaction that created the output\n     * @param rlpChallengeTx RLP-encoded challenge transaction\n     * @param challengeTxInputIndex index pos of the same utxo in the challenge transaction\n     * @param challengeTxWitness Witness for challenging transaction\n    */\n    function verifySpendingCondition(uint256 utxoPos, bytes memory rlpOutputCreationTx, bytes memory rlpChallengeTx, uint16 challengeTxInputIndex, bytes memory challengeTxWitness) private {\n        GenericTransaction.Transaction memory challengingTx = GenericTransaction.decode(rlpChallengeTx);\n\n        GenericTransaction.Transaction memory inputTx = GenericTransaction.decode(rlpOutputCreationTx);\n        PosLib.Position memory utxoPosDecoded = PosLib.decode(utxoPos);\n        GenericTransaction.Output memory output = GenericTransaction.getOutput(inputTx, utxoPosDecoded.outputIndex);\n\n        ISpendingCondition condition = spendingConditionRegistry.spendingConditions(\n            output.outputType, challengingTx.txType\n        );\n        require(address(condition) != address(0), \"Spending condition contract not found\");\n        bool isSpent = condition.verify(\n            rlpOutputCreationTx,\n            utxoPos,\n            rlpChallengeTx,\n            challengeTxInputIndex,\n            challengeTxWitness\n        );\n        require(isSpent, \"Spending condition failed\");\n    }\n\n    /**\n     * @dev Verify the validity of the ticket\n     * @param utxoPos pos of the output, which is the ticket identifier\n    */\n    function verifyTicketValidityForClaim(uint256 utxoPos) private {\n        require(!ticketData[utxoPos].isClaimed, \"Already claimed\");\n        require(ticketData[utxoPos].outputOwner == msg.sender, \"Not called by the ticket owner\");\n        uint256 expiryTimestamp = ticketData[utxoPos].validityTimestamp;\n        require(expiryTimestamp != 0 && block.timestamp <= expiryTimestamp, \"Ticket is not valid\");\n    }\n    \n    /**\n     * @dev Verify the claim Tx is properly formed\n     * @param utxoPos pos of the output, which is the ticket identifier\n     * @param claimTx the Claim Tx to the quasar owner\n    */\n    function verifyClaimTxCorrectlyFormed(uint256 utxoPos, bytes memory claimTx) private {\n        PaymentTransactionModel.Transaction memory decodedTx\n        = PaymentTransactionModel.decode(claimTx);\n\n        // first input should be the Utxo with which ticket was obtained\n        require(decodedTx.inputs[0] == bytes32(utxoPos), \"The claim transaction does not spend the correct output\");\n\n        // first output should be the utxo for Quasar owner\n        FungibleTokenOutputModel.Output memory outputData\n        = PaymentTransactionModel.getOutput(decodedTx, 0);\n\n        // verify output to Quasar Owner\n        require(verifyOwnership(outputData, quasarOwner), \"The output is not owned by the quasar owner\");\n        // considering fee as a separate input\n        require(ticketData[utxoPos].outputValue == outputData.amount, \"Wrong amount sent to quasar owner\");\n        require(ticketData[utxoPos].token == outputData.token, \"Wrong token sent to quasar owner\");\n    }\n\n    /**\n     * @dev Payout liquid funds\n     * @param utxoPos pos of the output, which is the ticket identifier\n     * @param outputOwner the recipient of the funds\n     * @param token the token to payout\n    */\n    function runPayout(uint256 utxoPos, address payable outputOwner, address token) private {\n        if (token == address(0)) {\n            uint256 totalAmount = ticketData[utxoPos].reservedAmount.add(ticketData[utxoPos].bondValue);\n            SafeEthTransfer.transferRevertOnError(outputOwner, totalAmount, SAFE_GAS_STIPEND);\n        } else {\n            IERC20(token).safeTransfer(outputOwner, ticketData[utxoPos].reservedAmount);\n            SafeEthTransfer.transferRevertOnError(outputOwner, ticketData[utxoPos].bondValue, SAFE_GAS_STIPEND);\n        }\n    }\n\n    /**\n     * @dev Utilize funds from the pool, update exchange rate\n     * @param token the token to payout\n     * @param amount the value of the output claimed\n    */\n    function utilize(address token, uint256 amount) internal {\n        address qTokenAddress = tokenData[token].qTokenAddress;\n        uint256 totalQTokenSupply = IERC20(qTokenAddress).totalSupply();\n        uint256 quasarFee = tokenData[token].quasarFee;\n        // exchangeRate updates to-\n        // k' = (fee + (k * qTotalSupply)) / qTotalSupply\n        // exchangeRate cannot update to zero,\n        // since poolSupply cannot be reduced to zero between obtaining and claiming ticket\n        // same with qTokenSupply\n        uint256 numerator = quasarFee.add(tokenData[token].poolSupply);\n        require(numerator != 0, \"Issue with updating Exchange Rate \");\n        Exp memory exchangeRateScaled = Exponential.getExp(numerator, totalQTokenSupply);\n\n        tokenData[token].owedAmount = tokenData[token].owedAmount.add(amount);\n        tokenData[token].exchangeRate = exchangeRateScaled.mantissa;\n        tokenData[token].poolSupply = tokenData[token].poolSupply.add(quasarFee);\n    }\n}\n",
  "sourcePath": "/Users/souradeep/Downloads/plasma-contracts/plasma_framework/contracts/poc/fast_exits/Quasar.sol",
  "compiler": {
    "name": "solc",
    "version": "0.5.11+commit.c082d0b4.Emscripten.clang"
  },
  "schemaVersion": "3.2.0",
  "updatedAt": "2021-03-15T18:46:53.568Z",
  "devdoc": {
    "methods": {
      "addEthCapacity()": {
        "details": "Add Eth Liquid funds to the quasar"
      },
      "addTokenCapacity(address,uint256)": {
        "details": "Add ERC20 Liquid funds to the quasar",
        "params": {
          "amount": "value to supply",
          "token": "the token"
        }
      },
      "challengeIfeClaim(uint256,bytes,uint16,bytes,uint16,bytes,bytes32)": {
        "details": "Challenge an IFE claim",
        "params": {
          "challengeTxInputIndex": "index pos of the same utxo in the challenge transaction",
          "challengeTxWitness": "Witness for challenging transaction",
          "otherInputCreationTx": "(optional) Transaction that created this shared input",
          "otherInputIndex": "(optional) index pos of another input from the claimTx that is spent",
          "rlpChallengeTx": "RLP-encoded challenge transaction",
          "senderData": "A keccak256 hash of the sender's address",
          "utxoPos": "pos of the output, which is the ticket identifier"
        }
      },
      "claim(uint256,uint256,bytes,bytes)": {
        "details": "Submit claim after spending the output to the quasar owner",
        "params": {
          "rlpTxToQuasarOwner": "RLP-encoded transaction that spends the output to quasar owner",
          "txToQuasarOwnerInclusionProof": "Transaction Inclusion proof",
          "utxoPos": "pos of the output, which is the ticket identifier",
          "utxoPosQuasarOwner": "pos of the quasar owner's output"
        }
      },
      "constructor": {
        "details": "Constructor, takes params to set up quasar contract",
        "params": {
          "_bondValue": "bond to obtain tickets",
          "_quasarOwner": "Receiver address on Plasma",
          "_safeBlockMargin": "The Quasar will not accept exits for outputs younger than the current plasma block minus the safe block margin ",
          "_waitingPeriod": "Waiting period from submission to processing claim",
          "plasmaFrameworkContract": "Plasma Framework contract address"
        }
      },
      "flushExpiredTicket(uint256)": {
        "details": "Flush an expired ticket to free up reserved funds",
        "params": {
          "utxoPos": "pos of the output, which is the ticket identifier"
        }
      },
      "getLatestSafeBlock()": {
        "return": "The latest safe block number"
      },
      "ifeClaim(uint256,bytes)": {
        "details": "Submit an IFE claim for claims without inclusion proof",
        "params": {
          "inFlightClaimTx": "in-flight tx that spends the output to quasar owner",
          "utxoPos": "pos of the output, which is the ticket identifier"
        }
      },
      "obtainTicket(uint256,bytes,bytes)": {
        "details": "Obtain a ticket from the Quasar",
        "params": {
          "outputCreationTxInclusionProof": "Transaction inclusion proof",
          "rlpOutputCreationTx": "RLP-encoded transaction that created the output",
          "utxoPos": "Output that will be spent to the quasar later, is the ticket identifier"
        }
      },
      "pauseQuasar()": {
        "details": "Pause contract in a byzantine state"
      },
      "processIfeClaim(uint256)": {
        "details": "Process the IFE claim to get liquid funds",
        "params": {
          "utxoPos": "pos of the output, which is the ticket identifier"
        }
      },
      "registerQToken(address,address,uint256)": {
        "details": "Register a token to be allowed, deploy qToken first",
        "params": {
          "qTokenContract": "the address of the qToken contract",
          "quasarFee": "amount (in token's denomination) to be used as a fee",
          "token": "the token"
        }
      },
      "repayOwedToken(address,uint256)": {
        "details": "Repay owed funds to the pool",
        "params": {
          "amount": "amount to repay",
          "token": "the token"
        }
      },
      "resumeQuasar()": {
        "details": "Unpause contract and allow tickets"
      },
      "setSafeBlockMargin(uint256)": {
        "details": "Set the safe block margin.",
        "params": {
          "margin": "the new safe block margin"
        }
      },
      "withdrawFunds(address,uint256)": {
        "details": "Withdraw funds from the contract",
        "params": {
          "amount": "amount (in number of qTokens) to withdraw",
          "token": "the token"
        }
      },
      "withdrawUnclaimedBonds()": {
        "details": "Withdraw Unclaimed bonds from the contract"
      }
    },
    "title": "Quasar Contract Implementation Doc - https://github.com/omgnetwork/research-workshop/blob/master/Incognito_fast_withdrawals.md"
  },
  "userdoc": {
    "methods": {
      "addEthCapacity()": {
        "notice": "Verify QToken contract before supplying"
      },
      "addTokenCapacity(address,uint256)": {
        "notice": "Verify QToken contract before supplying"
      },
      "challengeIfeClaim(uint256,bytes,uint16,bytes,uint16,bytes,bytes32)": {
        "notice": "A challenge is required if any of the claimTx's inputs are double spent"
      },
      "flushExpiredTicket(uint256)": {
        "notice": "Only an unclaimed ticket can be flushed, bond amount is added to unclaimedBonds"
      },
      "obtainTicket(uint256,bytes,bytes)": {
        "notice": "Ticket is valid for four hours, pay bond here for obtaining ticket"
      },
      "registerQToken(address,address,uint256)": {
        "notice": "Higher decimal for erc20 preffered"
      }
    }
  }
}