{
  "contractName": "Quasar",
  "abi": [
    {
      "constant": true,
      "inputs": [],
      "name": "unclaimedBonds",
      "outputs": [
        {
          "internalType": "uint256",
          "name": "",
          "type": "uint256"
        }
      ],
      "payable": false,
      "stateMutability": "view",
      "type": "function"
    },
    {
      "constant": true,
      "inputs": [],
      "name": "quasarOwner",
      "outputs": [
        {
          "internalType": "address",
          "name": "",
          "type": "address"
        }
      ],
      "payable": false,
      "stateMutability": "view",
      "type": "function"
    },
    {
      "constant": true,
      "inputs": [],
      "name": "TICKET_VALIDITY_PERIOD",
      "outputs": [
        {
          "internalType": "uint256",
          "name": "",
          "type": "uint256"
        }
      ],
      "payable": false,
      "stateMutability": "view",
      "type": "function"
    },
    {
      "constant": true,
      "inputs": [],
      "name": "plasmaFramework",
      "outputs": [
        {
          "internalType": "contract PlasmaFramework",
          "name": "",
          "type": "address"
        }
      ],
      "payable": false,
      "stateMutability": "view",
      "type": "function"
    },
    {
      "constant": true,
      "inputs": [],
      "name": "IFE_CLAIM_MARGIN",
      "outputs": [
        {
          "internalType": "uint256",
          "name": "",
          "type": "uint256"
        }
      ],
      "payable": false,
      "stateMutability": "view",
      "type": "function"
    },
    {
      "constant": true,
      "inputs": [
        {
          "internalType": "uint256",
          "name": "",
          "type": "uint256"
        }
      ],
      "name": "ticketData",
      "outputs": [
        {
          "internalType": "address payable",
          "name": "outputOwner",
          "type": "address"
        },
        {
          "internalType": "uint256",
          "name": "validityTimestamp",
          "type": "uint256"
        },
        {
          "internalType": "uint256",
          "name": "reservedAmount",
          "type": "uint256"
        },
        {
          "internalType": "address",
          "name": "token",
          "type": "address"
        },
        {
          "internalType": "uint256",
          "name": "bondValue",
          "type": "uint256"
        },
        {
          "internalType": "bytes",
          "name": "rlpOutputCreationTx",
          "type": "bytes"
        },
        {
          "internalType": "bool",
          "name": "isClaimed",
          "type": "bool"
        }
      ],
      "payable": false,
      "stateMutability": "view",
      "type": "function"
    },
    {
      "constant": true,
      "inputs": [],
      "name": "waitingPeriod",
      "outputs": [
        {
          "internalType": "uint256",
          "name": "",
          "type": "uint256"
        }
      ],
      "payable": false,
      "stateMutability": "view",
      "type": "function"
    },
    {
      "constant": false,
      "inputs": [
        {
          "internalType": "address",
          "name": "token",
          "type": "address"
        },
        {
          "internalType": "uint256",
          "name": "amount",
          "type": "uint256"
        }
      ],
      "name": "addTokenCapacity",
      "outputs": [],
      "payable": false,
      "stateMutability": "nonpayable",
      "type": "function"
    },
    {
      "constant": true,
      "inputs": [
        {
          "internalType": "uint256",
          "name": "",
          "type": "uint256"
        }
      ],
      "name": "ifeClaimData",
      "outputs": [
        {
          "internalType": "bytes",
          "name": "rlpClaimTx",
          "type": "bytes"
        },
        {
          "internalType": "uint256",
          "name": "finalizationTimestamp",
          "type": "uint256"
        },
        {
          "internalType": "bool",
          "name": "isValid",
          "type": "bool"
        }
      ],
      "payable": false,
      "stateMutability": "view",
      "type": "function"
    },
    {
      "constant": true,
      "inputs": [],
      "name": "quasarMaintainer",
      "outputs": [
        {
          "internalType": "address",
          "name": "",
          "type": "address"
        }
      ],
      "payable": false,
      "stateMutability": "view",
      "type": "function"
    },
    {
      "constant": true,
      "inputs": [],
      "name": "spendingConditionRegistry",
      "outputs": [
        {
          "internalType": "contract SpendingConditionRegistry",
          "name": "",
          "type": "address"
        }
      ],
      "payable": false,
      "stateMutability": "view",
      "type": "function"
    },
    {
      "constant": false,
      "inputs": [],
      "name": "addEthCapacity",
      "outputs": [],
      "payable": true,
      "stateMutability": "payable",
      "type": "function"
    },
    {
      "constant": true,
      "inputs": [
        {
          "internalType": "address",
          "name": "",
          "type": "address"
        }
      ],
      "name": "tokenUsableCapacity",
      "outputs": [
        {
          "internalType": "uint256",
          "name": "",
          "type": "uint256"
        }
      ],
      "payable": false,
      "stateMutability": "view",
      "type": "function"
    },
    {
      "constant": true,
      "inputs": [],
      "name": "safeBlockMargin",
      "outputs": [
        {
          "internalType": "uint256",
          "name": "",
          "type": "uint256"
        }
      ],
      "payable": false,
      "stateMutability": "view",
      "type": "function"
    },
    {
      "constant": true,
      "inputs": [],
      "name": "isPaused",
      "outputs": [
        {
          "internalType": "bool",
          "name": "",
          "type": "bool"
        }
      ],
      "payable": false,
      "stateMutability": "view",
      "type": "function"
    },
    {
      "constant": false,
      "inputs": [
        {
          "internalType": "address",
          "name": "token",
          "type": "address"
        },
        {
          "internalType": "uint256",
          "name": "amount",
          "type": "uint256"
        }
      ],
      "name": "withdrawErc20",
      "outputs": [],
      "payable": false,
      "stateMutability": "nonpayable",
      "type": "function"
    },
    {
      "constant": false,
      "inputs": [
        {
          "internalType": "uint256",
          "name": "amount",
          "type": "uint256"
        }
      ],
      "name": "withdrawEth",
      "outputs": [],
      "payable": false,
      "stateMutability": "nonpayable",
      "type": "function"
    },
    {
      "constant": true,
      "inputs": [],
      "name": "bondValue",
      "outputs": [
        {
          "internalType": "uint256",
          "name": "",
          "type": "uint256"
        }
      ],
      "payable": false,
      "stateMutability": "view",
      "type": "function"
    },
    {
      "constant": true,
      "inputs": [],
      "name": "paymentExitGame",
      "outputs": [
        {
          "internalType": "contract PaymentExitGame",
          "name": "",
          "type": "address"
        }
      ],
      "payable": false,
      "stateMutability": "view",
      "type": "function"
    },
    {
      "constant": true,
      "inputs": [],
      "name": "IFE_CLAIM_WAITING_PERIOD",
      "outputs": [
        {
          "internalType": "uint256",
          "name": "",
          "type": "uint256"
        }
      ],
      "payable": false,
      "stateMutability": "view",
      "type": "function"
    },
    {
      "inputs": [
        {
          "internalType": "address",
          "name": "plasmaFrameworkContract",
          "type": "address"
        },
        {
          "internalType": "address",
          "name": "spendingConditionRegistryContract",
          "type": "address"
        },
        {
          "internalType": "address",
          "name": "_quasarOwner",
          "type": "address"
        },
        {
          "internalType": "uint256",
          "name": "_safeBlockMargin",
          "type": "uint256"
        },
        {
          "internalType": "uint256",
          "name": "_waitingPeriod",
          "type": "uint256"
        },
        {
          "internalType": "uint256",
          "name": "_bondValue",
          "type": "uint256"
        }
      ],
      "payable": false,
      "stateMutability": "nonpayable",
      "type": "constructor"
    },
    {
      "anonymous": false,
      "inputs": [
        {
          "indexed": false,
          "internalType": "uint256",
          "name": "utxoPos",
          "type": "uint256"
        }
      ],
      "name": "NewTicketObtained",
      "type": "event"
    },
    {
      "anonymous": false,
      "inputs": [
        {
          "indexed": false,
          "internalType": "uint256",
          "name": "utxoPos",
          "type": "uint256"
        },
        {
          "indexed": false,
          "internalType": "uint160",
          "name": "exitId",
          "type": "uint160"
        }
      ],
      "name": "IFEClaimSubmitted",
      "type": "event"
    },
    {
      "anonymous": false,
      "inputs": [
        {
          "indexed": false,
          "internalType": "address",
          "name": "token",
          "type": "address"
        },
        {
          "indexed": false,
          "internalType": "uint256",
          "name": "balance",
          "type": "uint256"
        }
      ],
      "name": "QuasarTotalCapacityUpdated",
      "type": "event"
    },
    {
      "constant": true,
      "inputs": [],
      "name": "getLatestSafeBlock",
      "outputs": [
        {
          "internalType": "uint256",
          "name": "",
          "type": "uint256"
        }
      ],
      "payable": false,
      "stateMutability": "view",
      "type": "function"
    },
    {
      "constant": false,
      "inputs": [
        {
          "internalType": "uint256",
          "name": "margin",
          "type": "uint256"
        }
      ],
      "name": "setSafeBlockMargin",
      "outputs": [],
      "payable": false,
      "stateMutability": "nonpayable",
      "type": "function"
    },
    {
      "constant": false,
      "inputs": [
        {
          "internalType": "uint256",
          "name": "utxoPos",
          "type": "uint256"
        }
      ],
      "name": "flushExpiredTicket",
      "outputs": [],
      "payable": false,
      "stateMutability": "nonpayable",
      "type": "function"
    },
    {
      "constant": false,
      "inputs": [],
      "name": "pauseQuasar",
      "outputs": [],
      "payable": false,
      "stateMutability": "nonpayable",
      "type": "function"
    },
    {
      "constant": false,
      "inputs": [],
      "name": "resumeQuasar",
      "outputs": [],
      "payable": false,
      "stateMutability": "nonpayable",
      "type": "function"
    },
    {
      "constant": false,
      "inputs": [],
      "name": "withdrawUnclaimedBonds",
      "outputs": [],
      "payable": false,
      "stateMutability": "nonpayable",
      "type": "function"
    },
    {
      "constant": false,
      "inputs": [
        {
          "internalType": "uint256",
          "name": "utxoPos",
          "type": "uint256"
        },
        {
          "internalType": "bytes",
          "name": "rlpOutputCreationTx",
          "type": "bytes"
        },
        {
          "internalType": "bytes",
          "name": "outputCreationTxInclusionProof",
          "type": "bytes"
        }
      ],
      "name": "obtainTicket",
      "outputs": [],
      "payable": true,
      "stateMutability": "payable",
      "type": "function"
    },
    {
      "constant": false,
      "inputs": [
        {
          "internalType": "uint256",
          "name": "utxoPos",
          "type": "uint256"
        },
        {
          "internalType": "uint256",
          "name": "utxoPosQuasarOwner",
          "type": "uint256"
        },
        {
          "internalType": "bytes",
          "name": "rlpTxToQuasarOwner",
          "type": "bytes"
        },
        {
          "internalType": "bytes",
          "name": "txToQuasarOwnerInclusionProof",
          "type": "bytes"
        }
      ],
      "name": "claim",
      "outputs": [],
      "payable": false,
      "stateMutability": "nonpayable",
      "type": "function"
    },
    {
      "constant": false,
      "inputs": [
        {
          "internalType": "uint256",
          "name": "utxoPos",
          "type": "uint256"
        },
        {
          "internalType": "bytes",
          "name": "inFlightClaimTx",
          "type": "bytes"
        }
      ],
      "name": "ifeClaim",
      "outputs": [],
      "payable": false,
      "stateMutability": "nonpayable",
      "type": "function"
    },
    {
      "constant": false,
      "inputs": [
        {
          "internalType": "uint256",
          "name": "utxoPos",
          "type": "uint256"
        },
        {
          "internalType": "bytes",
          "name": "rlpChallengeTx",
          "type": "bytes"
        },
        {
          "internalType": "uint16",
          "name": "challengeTxInputIndex",
          "type": "uint16"
        },
        {
          "internalType": "bytes",
          "name": "challengeTxWitness",
          "type": "bytes"
        },
        {
          "internalType": "uint16",
          "name": "otherInputIndex",
          "type": "uint16"
        },
        {
          "internalType": "bytes",
          "name": "otherInputCreationTx",
          "type": "bytes"
        },
        {
          "internalType": "bytes32",
          "name": "senderData",
          "type": "bytes32"
        }
      ],
      "name": "challengeIfeClaim",
      "outputs": [],
      "payable": false,
      "stateMutability": "nonpayable",
      "type": "function"
    },
    {
      "constant": false,
      "inputs": [
        {
          "internalType": "uint256",
          "name": "utxoPos",
          "type": "uint256"
        }
      ],
      "name": "processIfeClaim",
      "outputs": [],
      "payable": false,
      "stateMutability": "nonpayable",
      "type": "function"
    }
  ],
  "bytecode": "0x60806040523480156200001157600080fd5b506040516200594a3803806200594a833981016040819052620000349162000195565b600280546001600160a01b0319166001600160a01b0388811691909117918290556040517faf07976400000000000000000000000000000000000000000000000000000000815291169063af0797649062000095906001906004016200023a565b60206040518083038186803b158015620000ae57600080fd5b505afa158015620000c3573d6000803e3d6000fd5b505050506040513d601f19601f82011682018060405250620000e991908101906200016c565b600380546001600160a01b039283166001600160a01b031991821617909155600480549783169782169790971790965560058054959091169486169490941790935560008054909416331784556006919091556007556008556009555062000291565b805162000159816200026c565b92915050565b8051620001598162000286565b6000602082840312156200017f57600080fd5b60006200018d84846200014c565b949350505050565b60008060008060008060c08789031215620001af57600080fd5b6000620001bd89896200014c565b9650506020620001d089828a016200014c565b9550506040620001e389828a016200014c565b9450506060620001f689828a016200015f565b93505060806200020989828a016200015f565b92505060a06200021c89828a016200015f565b9150509295509295509295565b62000234816200025f565b82525050565b6020810162000159828462000229565b60006001600160a01b03821662000159565b90565b600062000159826200025c565b62000277816200024a565b81146200028357600080fd5b50565b62000277816200025c565b6156a980620002a16000396000f3fe6080604052600436106101d85760003560e01c80635a6d086f11610102578063b187bd2611610095578063d82a94ae11610064578063d82a94ae146104ea578063e8469a81146104ff578063e87e918914610514578063e9f05da314610529576101d8565b8063b187bd2614610473578063bd1f4b5214610495578063c311d049146104b5578063d2d5862c146104d5576101d8565b806380ec46df116100d157806380ec46df146104095780639132ccb2146104295780639829625c14610449578063a9776b371461045e576101d8565b80635a6d086f146103ac5780635f4a12d3146103cc57806371ff5794146103ec5780637cc8448e14610401576101d8565b806335098e8f1161017a5780633c2568a9116101495780633c2568a9146103355780633d960403146103555780633f136c8f14610384578063417a972614610397576101d8565b806335098e8f146102b8578063394803fd146102cd5780633a2ef9df146103005780633be457bf14610315576101d8565b80631bdaccd8116101b65780631bdaccd81461023f57806320cc593f1461025457806321cc9343146102765780632c30356414610298576101d8565b8063067a83eb146101dd578063084d0f80146102085780631047b1e31461021d575b600080fd5b3480156101e957600080fd5b506101f261053e565b6040516101ff919061545d565b60405180910390f35b34801561021457600080fd5b506101f2610544565b34801561022957600080fd5b50610232610696565b6040516101ff9190614e35565b34801561024b57600080fd5b506101f26106a5565b34801561026057600080fd5b506102696106ab565b6040516101ff9190614f9f565b34801561028257600080fd5b5061029661029136600461365d565b6106ba565b005b3480156102a457600080fd5b506102966102b3366004613621565b610915565b3480156102c457600080fd5b506101f2610a12565b3480156102d957600080fd5b506102ed6102e8366004613621565b610a18565b6040516101ff9796959493929190614e43565b34801561030c57600080fd5b506101f2610af1565b34801561032157600080fd5b5061029661033036600461371f565b610af7565b34801561034157600080fd5b50610296610350366004613547565b610f50565b34801561036157600080fd5b50610375610370366004613621565b610fda565b6040516101ff93929190614f72565b6102966103923660046136a4565b61108b565b3480156103a357600080fd5b506102326113d6565b3480156103b857600080fd5b506102966103c7366004613621565b6113e5565b3480156103d857600080fd5b506102966103e7366004613800565b611517565b3480156103f857600080fd5b50610269611645565b610296611654565b34801561041557600080fd5b50610296610424366004613621565b6116d5565b34801561043557600080fd5b506101f2610444366004613529565b611704565b34801561045557600080fd5b50610296611716565b34801561046a57600080fd5b506101f261174f565b34801561047f57600080fd5b50610488611755565b6040516101ff9190614f06565b3480156104a157600080fd5b506102966104b0366004613547565b61175e565b3480156104c157600080fd5b506102966104d0366004613621565b61184f565b3480156104e157600080fd5b506101f261194c565b3480156104f657600080fd5b50610269611952565b34801561050b57600080fd5b50610296611961565b34801561052057600080fd5b50610296611997565b34801561053557600080fd5b506101f26119da565b60095481565b600080600260009054906101000a90046001600160a01b03166001600160a01b03166338a9e0bc6040518163ffffffff1660e01b815260040160206040518083038186803b15801561059557600080fd5b505afa1580156105a9573d6000803e3d6000fd5b505050506040513d601f19601f820116820180604052506105cd919081019061363f565b9050600061066782600260009054906101000a90046001600160a01b03166001600160a01b0316634ca8714f6040518163ffffffff1660e01b815260040160206040518083038186803b15801561062357600080fd5b505afa158015610637573d6000803e3d6000fd5b505050506040513d601f19601f8201168201806040525061065b919081019061363f565b9063ffffffff6119e116565b905061068e61068183600654611a0e90919063ffffffff16565b829063ffffffff6119e116565b925050505b90565b6005546001600160a01b031681565b61384081565b6002546001600160a01b031681565b6106c382611a4f565b6106cd8282611af8565b60006106d882611c0a565b6040805160018082528183019092529192506060919060208083019080388339019050509050818160008151811061070c57fe5b6001600160a01b03928316602091820292909201015260035460405163cec9e1a760e01b8152606092919091169063cec9e1a79061074e908590600401614ef5565b60006040518083038186803b15801561076657600080fd5b505afa15801561077a573d6000803e3d6000fd5b505050506040513d6000823e601f3d908101601f191682016040526107a29190810190613581565b9050806000815181106107b157fe5b6020026020010151602001516001600160401b0316600014156107ef5760405162461bcd60e51b81526004016107e6906152ad565b60405180910390fd5b6108256170808260008151811061080257fe5b6020026020010151602001516001600160401b0316611c3090919063ffffffff16565b4211156108445760405162461bcd60e51b81526004016107e69061520d565b6000858152600b6020908152604091829020600601805460ff19166001179055815160608101909252858252810161088542620a8c0063ffffffff611c3016565b815260016020918201526000878152600c8252604090208251805191926108b192849290910190613064565b50602082015160018201556040918201516002909101805460ff1916911515919091179055517fb29649e775970df3b15b55fdec6ed94f70d03683cd54b8fb201b46a1765c3a2490610906908790869061546b565b60405180910390a15050505050565b6000818152600b60205260409020600181015460069091015460ff161561094e5760405162461bcd60e51b81526004016107e6906150fd565b804211801561095c57508015155b6109785760405162461bcd60e51b81526004016107e69061537d565b6000828152600b602090815260408083206002810180549085905560018083018690556003909201546001600160a01b031685529252909120546109c2908263ffffffff611c3016565b6000848152600b6020818152604080842060038101546001600160a01b03168552600183529084209490945591869052905260040154600954610a0a9163ffffffff611c3016565b600955505050565b61708081565b600b602090815260009182526040918290208054600180830154600280850154600386015460048701546005880180548b51601f600019998316156101000299909901909116959095049687018a90048a0285018a01909a528584526001600160a01b039687169994989297919096169594909391830182828015610ade5780601f10610ab357610100808354040283529160200191610ade565b820191906000526020600020905b815481529060010190602001808311610ac157829003601f168201915b5050506006909301549192505060ff1687565b60075481565b33604051602001610b089190614daa565b604051602081830303815290604052805190602001208114610b3c5760405162461bcd60e51b81526004016107e69061543d565b6000878152600b602052604090206006015460ff168015610b6e57506000878152600c602052604090206002015460ff165b610b8a5760405162461bcd60e51b81526004016107e69061522d565b6000878152600c6020526040902060010154421115610bbb5760405162461bcd60e51b81526004016107e69061510d565b8580519060200120600c6000898152602001908152602001600020600001604051610be69190614e1e565b60405180910390201415610c0c5760405162461bcd60e51b81526004016107e69061503d565b600254610c22906001600160a01b031687611c55565b610c3e5760405162461bcd60e51b81526004016107e69061536d565b8151610cf2576000878152600b60209081526040918290206005018054835160026001831615610100026000190190921691909104601f8101849004840282018401909452838152610ced938b93919291830182828015610ce05780601f10610cb557610100808354040283529160200191610ce0565b820191906000526020600020905b815481529060010190602001808311610cc357829003601f168201915b5050505050888888611d36565b610dc9565b610cfa6130e2565b6000888152600c602090815260409182902080548351601f60026000196101006001861615020190931692909204918201849004840281018401909452808452610d9a9392830182828015610d905780601f10610d6557610100808354040283529160200191610d90565b820191906000526020600020905b815481529060010190602001808311610d7357829003601f168201915b5050505050611ee9565b9050610dc781602001518561ffff1681518110610db357fe5b602002602001015160001c84898989611d36565b505b6000878152600c60205260409020600201805460ff19169055610dea613114565b6000888152600b6020908152604091829020825160e08101845281546001600160a01b0390811682526001808401548386015260028085015484880152600385015490921660608401526004840154608084015260058401805487516101009382161593909302600019011692909204601f81018690048602820186019096528581529194929360a086019390830182828015610ec85780601f10610e9d57610100808354040283529160200191610ec8565b820191906000526020600020905b815481529060010190602001808311610eab57829003601f168201915b50505091835250506006919091015460ff16151560209182015260408083015160608401516001600160a01b031660009081526001909352912054919250610f16919063ffffffff611c3016565b60608201516001600160a01b03166000908152600160205260409020556080810151610f469033906108fc611f02565b5050505050505050565b610f6b6001600160a01b03831633308463ffffffff611f2e16565b6001600160a01b038216600090815260016020526040902054610f94908263ffffffff611c3016565b6001600160a01b038316600090815260016020526040908190208290555160008051602061564783398151915291610fce91859190614eda565b60405180910390a15050565b600c6020908152600091825260409182902080548351601f600260001961010060018616150201909316929092049182018490048402810184019094528084529092918391908301828280156110715780601f1061104657610100808354040283529160200191611071565b820191906000526020600020905b81548152906001019060200180831161105457829003601f168201915b50505050600183015460029093015491929160ff16905083565b600a5460ff16156110ae5760405162461bcd60e51b81526004016107e69061535d565b60085434146110cf5760405162461bcd60e51b81526004016107e69061509d565b6000838152600b602052604090206006015460ff16156111015760405162461bcd60e51b81526004016107e6906150fd565b6000838152600b6020526040902060010154156111305760405162461bcd60e51b81526004016107e69061538d565b611138613165565b61114184611f89565b905061114b610544565b81516001600160401b031611156111745760405162461bcd60e51b81526004016107e6906153fd565b61117c6130e2565b61118584611ee9565b905061118f613185565b61119d82846040015161201c565b90506111a98133612070565b6111c55760405162461bcd60e51b81526004016107e69061519d565b6002546111e5906001600160a01b0316866111df86612094565b876120ce565b6112015760405162461bcd60e51b81526004016107e69061521d565b6040808201516001600160a01b03166000908152600160205220546060820151111561123f5760405162461bcd60e51b81526004016107e69061506d565b60608101516112605760405162461bcd60e51b81526004016107e69061534d565b60608101516040808301516001600160a01b031660009081526001602052205461128f9163ffffffff6119e116565b6040808301516001600160a01b03166000908152600160209081529082902092909255805160e081019091523381529081016112d34261384063ffffffff611c3016565b81526060808401516020808401919091526040808601516001600160a01b0390811682860152348486015260808086018c9052600060a09687018190528d8152600b8552839020875181549084166001600160a01b0319918216178255888601516001830155938801516002820155948701516003860180549190931693169290921790558401516004830155918301518051919261137a92600585019290910190613064565b5060c091909101516006909101805460ff19169115159190911790556040517f46650edf382c45ad9fa9d4b1a0bc52c4ec0b137c7532841fc574716b1eaf4fa3906113c690889061545d565b60405180910390a1505050505050565b6000546001600160a01b031681565b6000818152600c602052604090206001015442116114155760405162461bcd60e51b81526004016107e6906150ad565b6000818152600c602052604090206002015460ff166114465760405162461bcd60e51b81526004016107e6906152dd565b6000818152600b602081815260408084208054600c845291909420600201805460ff191690559190526003909101546001600160a01b039182169116806114c4576000838152600b6020526040812060048101546002909101546114af9163ffffffff611c3016565b90506114be83826108fc611f02565b50611512565b6000838152600b60205260409020600201546114f2906001600160a01b03831690849063ffffffff61227a16565b6000838152600b60205260409020600401546115129083906108fc611f02565b505050565b61152084611a4f565b61152a8483611af8565b611532613165565b61153b84611f89565b60025490915061155e906001600160a01b03168461155884612094565b856120ce565b61157a5760405162461bcd60e51b81526004016107e69061521d565b6000858152600b6020526040902060068101805460ff1916600117905580546003909101546001600160a01b039182169116806115ee576000878152600b6020526040812060048101546002909101546115d99163ffffffff611c3016565b90506115e883826108fc611f02565b5061163c565b6000878152600b602052604090206002015461161c906001600160a01b03831690849063ffffffff61227a16565b6000878152600b602052604090206004015461163c9083906108fc611f02565b50505050505050565b6004546001600160a01b031681565b600080805260016020527fa6eef7e35abe7026729641147f7915573c7e97b47efa546f5f6e3230263bcb4954611690903463ffffffff611c3016565b6001600160a01b0382166000908152600160205260409081902082905551600080516020615647833981519152916116ca91849190614eda565b60405180910390a150565b6000546001600160a01b031633146116ff5760405162461bcd60e51b81526004016107e69061517d565b600655565b60016020526000908152604090205481565b6000546001600160a01b031633146117405760405162461bcd60e51b81526004016107e69061517d565b600a805460ff19166001179055565b60065481565b600a5460ff1681565b6000546001600160a01b031633146117885760405162461bcd60e51b81526004016107e69061517d565b6001600160a01b0382166000908152600160205260409020548111156117c05760405162461bcd60e51b81526004016107e69061518d565b6001600160a01b0382166000908152600160205260409020546117e9908263ffffffff6119e116565b6001600160a01b03831660008181526001602052604090209190915561181690338363ffffffff61227a16565b6001600160a01b0382166000908152600160205260409081902054905160008051602061564783398151915291610fce91859190614eda565b6000546001600160a01b031633146118795760405162461bcd60e51b81526004016107e69061517d565b600080805260016020527fa6eef7e35abe7026729641147f7915573c7e97b47efa546f5f6e3230263bcb49548211156118c45760405162461bcd60e51b81526004016107e69061518d565b6001600160a01b0381166000908152600160205260409020546118ed908363ffffffff6119e116565b6001600160a01b03821660009081526001602052604090205561191333836108fc611f02565b6001600160a01b0381166000908152600160205260409081902054905160008051602061564783398151915291610fce91849190614eda565b60085481565b6003546001600160a01b031681565b6000546001600160a01b0316331461198b5760405162461bcd60e51b81526004016107e69061517d565b600a805460ff19169055565b6000546001600160a01b031633146119c15760405162461bcd60e51b81526004016107e69061517d565b6009805460009091556119d733826108fc611f02565b50565b620a8c0081565b600082821115611a035760405162461bcd60e51b81526004016107e69061515d565b508082035b92915050565b600082611a1d57506000611a08565b82820282848281611a2a57fe5b0414611a485760405162461bcd60e51b81526004016107e69061524d565b9392505050565b6000818152600b602052604090206006015460ff1615611a815760405162461bcd60e51b81526004016107e69061523d565b6000818152600b60205260409020546001600160a01b03163314611ab75760405162461bcd60e51b81526004016107e690614fed565b6000818152600b60205260409020600101548015801590611ad85750804211155b611af45760405162461bcd60e51b81526004016107e69061531d565b5050565b611b006130e2565b611b0982611ee9565b90508260001b8160200151600081518110611b2057fe5b602002602001015114611b455760405162461bcd60e51b81526004016107e6906152bd565b611b4d613185565b611b5882600061201c565b600554909150611b729082906001600160a01b0316612070565b611b8e5760405162461bcd60e51b81526004016107e6906150ed565b60608101516000858152600b602052604090206002015414611bc25760405162461bcd60e51b81526004016107e690614fbd565b6040808201516000868152600b60205291909120600301546001600160a01b03908116911614611c045760405162461bcd60e51b81526004016107e69061533d565b50505050565b80516020820120600090611c289060691c609763ffffffff61229c16565b90505b919050565b600082820183811015611a485760405162461bcd60e51b81526004016107e6906150cd565b6000815160001415611c6957506000611a08565b611c716131ac565b611c7a836122a9565b8051604051630461cb1160e51b81529192506000916001600160a01b03871691638c39622091611cad919060040161545d565b60206040518083038186803b158015611cc557600080fd5b505afa158015611cd9573d6000803e3d6000fd5b505050506040513d601f19601f82011682018060405250611cfd919081019061388f565b9050611d07612449565b60ff168160ff1614611d2b5760405162461bcd60e51b81526004016107e69061541d565b506001949350505050565b611d3e6131ac565b611d47846122a9565b9050611d516131ac565b611d5a866122a9565b9050611d64613165565b611d6d88611f89565b9050611d776131e1565b611d8583836040015161244e565b60048054825187516040516364f40d6f60e01b81529495506000946001600160a01b03909316936364f40d6f93611dbe93929101615486565b60206040518083038186803b158015611dd657600080fd5b505afa158015611dea573d6000803e3d6000fd5b505050506040513d601f19601f82011682018060405250611e0e9190810190613603565b90506001600160a01b038116611e365760405162461bcd60e51b81526004016107e6906152fd565b60405163e618a6f560e01b81526000906001600160a01b0383169063e618a6f590611e6d908d908f908e908e908e90600401614f14565b60206040518083038186803b158015611e8557600080fd5b505afa158015611e99573d6000803e3d6000fd5b505050506040513d601f19601f82011682018060405250611ebd91908101906135b5565b905080611edc5760405162461bcd60e51b81526004016107e69061516d565b5050505050505050505050565b611ef16130e2565b611c28611efd836122a9565b612456565b6000611f0f848484612655565b905080611c045760405162461bcd60e51b81526004016107e6906151dd565b604051611c049085906323b872dd60e01b90611f5290879087908790602401614eb2565b60408051601f198184030181529190526020810180516001600160e01b03166001600160e01b0319909316929092179091526126bf565b611f91613165565b633b9aca00808304906127109084068190049084066429f16b11c6831115611fcb5760405162461bcd60e51b81526004016107e690614fdd565b61ffff821115611fed5760405162461bcd60e51b81526004016107e69061501d565b604080516060810182526001600160401b03909416845261ffff92831660208501529116908201529050919050565b612024613185565b8260400151518261ffff161061204c5760405162461bcd60e51b81526004016107e69061502d565b82604001518261ffff168151811061206057fe5b6020026020010151905092915050565b60008061207c846127a4565b6001600160a01b039081169084161491505092915050565b61209c613165565b506040805160608101825282516001600160401b0316815260209283015161ffff169281019290925260009082015290565b6000826040015161ffff166000146120f85760405162461bcd60e51b81526004016107e6906151ad565b6121006131ac565b612109856122a9565b8051604051630461cb1160e51b81529192506000916001600160a01b03891691638c3962209161213c919060040161545d565b60206040518083038186803b15801561215457600080fd5b505afa158015612168573d6000803e3d6000fd5b505050506040513d601f19601f8201168201806040525061218c919081019061388f565b9050612196612449565b60ff168160ff16146121ba5760405162461bcd60e51b81526004016107e69061541d565b845160405163f25b3f9960e01b81526000916001600160a01b038a169163f25b3f99916121e991600401615494565b604080518083038186803b15801561220057600080fd5b505afa158015612214573d6000803e3d6000fd5b505050506040513d601f19601f8201168201806040525061223891908101906135d3565b509050806122585760405162461bcd60e51b81526004016107e6906151cd565b61226c87876020015161ffff1683886127ae565b93505050505b949350505050565b60405161151290849063a9059cbb60e01b90611f529086908690602401614eda565b600160ff919091161b1790565b6122b16131ac565b60606122c46122bf846128f9565b61291e565b80519091506005146122e85760405162461bcd60e51b81526004016107e69061513d565b6000612307826000815181106122fa57fe5b6020026020010151612a2d565b9050600081116123295760405162461bcd60e51b81526004016107e690614fad565b60606123488360028151811061233b57fe5b602002602001015161291e565b90506060815160405190808252806020026020018201604052801561238757816020015b6123746131e1565b81526020019060019003908161236c5790505b50905060005b82518110156123d1576123b28382815181106123a557fe5b6020026020010151612b37565b8282815181106123be57fe5b602090810291909101015260010161238d565b5060006123f1856004815181106123e457fe5b6020026020010151612bd4565b90506040518060a001604052808581526020016124148760018151811061233b57fe5b81526020018381526020018660038151811061242c57fe5b602002602001015181526020018281525095505050505050919050565b600290565b6120246131e1565b61245e6130e2565b602082015151600410156124845760405162461bcd60e51b81526004016107e69061508d565b6040820151516124a65760405162461bcd60e51b81526004016107e690614ffd565b604082015151600410156124cc5760405162461bcd60e51b81526004016107e69061507d565b60608260200151516040519080825280602002602001820160405280156124fd578160200160208202803883390190505b50905060005b836020015151811015612565576000612525856020015183815181106123e457fe5b9050806125445760405162461bcd60e51b81526004016107e6906152ed565b8083838151811061255157fe5b602090810291909101015250600101612503565b5060608360400151516040519080825280602002602001820160405280156125a757816020015b612594613185565b81526020019060019003908161258c5790505b50905060005b8460400151518110156125f9576125da856040015182815181106125cd57fe5b6020026020010151612c61565b8282815181106125e657fe5b60209081029190910101526001016125ad565b506126078460600151612a2d565b156126245760405162461bcd60e51b81526004016107e6906150bd565b6040805160a08101825285518152602081019390935282015260006060820152608080840151908201529050919050565b600080846001600160a01b0316838560405161267090614e2a565b600060405180830381858888f193505050503d80600081146126ae576040519150601f19603f3d011682016040523d82523d6000602084013e6126b3565b606091505b50909695505050505050565b6126d1826001600160a01b0316612d70565b6126ed5760405162461bcd60e51b81526004016107e69061542d565b60006060836001600160a01b0316836040516127099190614e12565b6000604051808303816000865af19150503d8060008114612746576040519150601f19603f3d011682016040523d82523d6000602084013e61274b565b606091505b50915091508161276d5760405162461bcd60e51b81526004016107e69061512d565b805115611c04578080602001905161278891908101906135b5565b611c045760405162461bcd60e51b81526004016107e6906153bd565b6020015160601c90565b60008151600014156127d25760405162461bcd60e51b81526004016107e6906151bd565b60208251816127dd57fe5b06156127fb5760405162461bcd60e51b81526004016107e6906153cd565b602082518161280657fe5b0460020a84106128285760405162461bcd60e51b81526004016107e69061544d565b600080600060f81b87604051602001612842929190614df6565b60408051601f198184030181529190528051602091820120915086905b855181116128eb57858101519350600282066128ab5760405161288e90600160f81b9085908790602001614dbf565b6040516020818303038152906040528051906020012092506128dd565b6040516128c490600160f81b9086908690602001614dbf565b6040516020818303038152906040528051906020012092505b60028204915060200161285f565b505090931495945050505050565b612901613200565b506040805180820190915281518152602082810190820152919050565b606061292982612d76565b6129455760405162461bcd60e51b81526004016107e69061529d565b6000806129558460200151612db0565b85519193509150821461297a5760405162461bcd60e51b81526004016107e69061505d565b600061298585612f59565b90506060816040519080825280602002602001820160405280156129c357816020015b6129b0613200565b8152602001906001900390816129a85790505b50602087015190915083016000805b84811015612a20576129e383612db0565b5080925050604051806040016040528083815260200184815250848281518110612a0957fe5b6020908102919091010152918101916001016129d2565b5091979650505050505050565b805160009015801590612a4257508151602110155b612a5e5760405162461bcd60e51b81526004016107e69061540d565b612a6782612d76565b15612a845760405162461bcd60e51b81526004016107e6906152cd565b600080612a948460200151612db0565b855191935091508214612ab95760405162461bcd60e51b81526004016107e69061500d565b60208085015182018051838503929091600083901a91841015612ae357836020036101000a830492505b81158015612aef575084155b15612b0c5760405162461bcd60e51b81526004016107e6906151ed565b81158015612b1a5750600184115b156126b35760405162461bcd60e51b81526004016107e690614fcd565b612b3f6131e1565b6060612b4a8361291e565b90508051600214612b6d5760405162461bcd60e51b81526004016107e69061527d565b612b756131e1565b6040518060400160405280612b90846000815181106122fa57fe5b815260200183600181518110612ba257fe5b60200260200101518152509050806000015160001415611a485760405162461bcd60e51b81526004016107e69061530d565b8051600090602114612bf85760405162461bcd60e51b81526004016107e6906153ed565b612c0182612d76565b15612c1e5760405162461bcd60e51b81526004016107e6906152cd565b600080612c2e8460200151612db0565b9150915081602114612c525760405162461bcd60e51b81526004016107e69061539d565b60208401510151915050919050565b612c69613185565b6060612c78836020015161291e565b90508051600314612c9b5760405162461bcd60e51b81526004016107e6906150dd565b612ca3613185565b604051806080016040528085600001518152602001612cd584600081518110612cc857fe5b6020026020010151612fd0565b60601b6bffffffffffffffffffffffff19168152602001612cfc84600181518110612cc857fe5b6001600160a01b03168152602001612d1a846002815181106122fa57fe5b90526060810151909150612d405760405162461bcd60e51b81526004016107e69061514d565b60208101516bffffffffffffffffffffffff1916611a485760405162461bcd60e51b81526004016107e69061525d565b3b151590565b8051600090612d8757506000611c2b565b6020820151805160001a9060c0821015612da657600092505050611c2b565b5060019392505050565b8051600090819081908190811a6080811015612dd3576001925060009150612f4e565b60808110801590612de4575060b881105b15612e2d57607e19810192506002831415612e2457600186015160001a6080811015612e225760405162461bcd60e51b81526004016107e6906153ad565b505b60019150612f4e565b60b88110801590612e3e575060c081105b15612eb85760019590950180519095602081900360b7016101000a820480820160b519019450909160001a60b619830181612e8b5760405162461bcd60e51b81526004016107e69061511d565b60378311612eab5760405162461bcd60e51b81526004016107e69061504d565b6001019350612f4e915050565b60c08110801590612ec9575060f881105b15612ede5760be198101925060019150612f4e565b60019590950180519095602081900360f7016101000a820480820160f519019450909160001a60f619830181612f265760405162461bcd60e51b81526004016107e69061528d565b60378311612f465760405162461bcd60e51b81526004016107e69061526d565b600101935050505b509092509050915091565b600080600090506000612f6f8460200151612db0565b602086015186519193508084019250015b80821015612fc6576000612f9383612db0565b5092830192905081831115612fba5760405162461bcd60e51b81526004016107e6906151fd565b50600190930192612f80565b5091949350505050565b8051600090601514612ff45760405162461bcd60e51b81526004016107e69061532d565b612ffd82612d76565b1561301a5760405162461bcd60e51b81526004016107e6906152cd565b60008061302a8460200151612db0565b915091508160151461304e5760405162461bcd60e51b81526004016107e6906153dd565b60208401510151600160601b9004915050919050565b828054600181600116156101000203166002900490600052602060002090601f016020900481019282601f106130a557805160ff19168380011785556130d2565b828001600101855582156130d2579182015b828111156130d25782518255916020019190600101906130b7565b506130de92915061321a565b5090565b6040518060a0016040528060008152602001606081526020016060815260200160008152602001600080191681525090565b6040518060e0016040528060006001600160a01b03168152602001600081526020016000815260200160006001600160a01b0316815260200160008152602001606081526020016000151581525090565b604080516060810182526000808252602082018190529181019190915290565b60408051608081018252600080825260208201819052918101829052606081019190915290565b6040518060a001604052806000815260200160608152602001606081526020016131d4613200565b8152600060209091015290565b6040518060400160405280600081526020016131fb613200565b905290565b604051806040016040528060008152602001600081525090565b61069391905b808211156130de5760008155600101613220565b8035611a08816155fc565b8051611a08816155fc565b600082601f83011261325b57600080fd5b815161326e613269826154c8565b6154a2565b91508181835260208401935060208101905083856105e084028201111561329457600080fd5b60005b838110156132c357816132aa88826133ab565b8452506020909201916105e09190910190600101613297565b5050505092915050565b600082601f8301126132de57600080fd5b60046132ec613269826154e8565b915081838560a084028201111561330257600080fd5b60005b838110156132c357816133188882613485565b84525060209092019160a09190910190600101613305565b8051611a0881615610565b8035611a0881615619565b8051611a0881615619565b600082601f83011261336257600080fd5b813561337061326982615505565b9150808252602083016020830185838301111561338c57600080fd5b6133978382846155a3565b50505092915050565b8051611a0881615622565b60006105e082840312156133be57600080fd5b6133c96101206154a2565b905060006133d78484613330565b82525060206133e884848301613513565b60208301525060406133fc84828501613346565b604083015250606061341084828501613346565b6060830152506080613424848285016132cd565b608083015250610300613439848285016132cd565b60a08301525061058061344e8482850161323f565b60c0830152506105a061346384828501613346565b60e0830152506105c061347884828501613346565b6101008301525092915050565b600060a0828403121561349757600080fd5b6134a160a06154a2565b905060006134af8484613346565b82525060206134c08484830161323f565b60208301525060406134d48482850161323f565b60408301525060606134e884828501613346565b60608301525060806134fc84828501613346565b60808301525092915050565b8035611a088161562b565b8051611a0881615634565b8051611a088161563d565b60006020828403121561353b57600080fd5b60006122728484613234565b6000806040838503121561355a57600080fd5b60006135668585613234565b92505060206135778582860161333b565b9150509250929050565b60006020828403121561359357600080fd5b81516001600160401b038111156135a957600080fd5b6122728482850161324a565b6000602082840312156135c757600080fd5b60006122728484613330565b600080604083850312156135e657600080fd5b60006135f28585613346565b925050602061357785828601613346565b60006020828403121561361557600080fd5b600061227284846133a0565b60006020828403121561363357600080fd5b6000612272848461333b565b60006020828403121561365157600080fd5b60006122728484613346565b6000806040838503121561367057600080fd5b600061367c858561333b565b92505060208301356001600160401b0381111561369857600080fd5b61357785828601613351565b6000806000606084860312156136b957600080fd5b60006136c5868661333b565b93505060208401356001600160401b038111156136e157600080fd5b6136ed86828701613351565b92505060408401356001600160401b0381111561370957600080fd5b61371586828701613351565b9150509250925092565b600080600080600080600060e0888a03121561373a57600080fd5b60006137468a8a61333b565b97505060208801356001600160401b0381111561376257600080fd5b61376e8a828b01613351565b965050604061377f8a828b01613508565b95505060608801356001600160401b0381111561379b57600080fd5b6137a78a828b01613351565b94505060806137b88a828b01613508565b93505060a08801356001600160401b038111156137d457600080fd5b6137e08a828b01613351565b92505060c06137f18a828b0161333b565b91505092959891949750929550565b6000806000806080858703121561381657600080fd5b6000613822878761333b565b94505060206138338782880161333b565b93505060408501356001600160401b0381111561384f57600080fd5b61385b87828801613351565b92505060608501356001600160401b0381111561387757600080fd5b61388387828801613351565b91505092959194509250565b6000602082840312156138a157600080fd5b6000612272848461351e565b60006138b98383614d86565b505060200190565b6138ca8161554b565b82525050565b6138ca6138dc8261554b565b6155db565b60006138ec8261553e565b6138f68185615542565b93506139018361552c565b8060005b8381101561392f57815161391988826138ad565b97506139248361552c565b925050600101613905565b509495945050505050565b6138ca81615556565b6138ca61394f8261555b565b610693565b6138ca61394f82610693565b600061396b8261553e565b6139758185615542565b93506139858185602086016155af565b61398e816155ec565b9093019392505050565b60006139a38261553e565b6139ad8185611c2b565b93506139bd8185602086016155af565b9290920192915050565b6000815460018116600081146139e45760018114613a0757613a46565b607f60028304166139f58187611c2b565b60ff1984168152955085019250613a46565b60028204613a158187611c2b565b9550613a2085615532565b60005b82811015613a3f57815488820152600190910190602001613a23565b5050850192505b505092915050565b6138ca81615568565b6000613a64601e83615542565b7f5472616e73616374696f6e2074797065206d757374206e6f7420626520300000815260200192915050565b6000613a9d602183615542565b7f57726f6e6720616d6f756e742073656e7420746f20717561736172206f776e658152603960f91b602082015260400192915050565b6000613ae0601983615542565b7f4c656164696e67207a65726f732061726520696e76616c696400000000000000815260200192915050565b6000613b19603483615542565b7f626c6f636b4e756d2065786365656473206d61782073697a6520616c6c6f77658152736420696e20506c61736d614672616d65776f726b60601b602082015260400192915050565b6000613b6f601e83615542565b7f4e6f742063616c6c656420627920746865207469636b6574206f776e65720000815260200192915050565b6000613ba8602183615542565b7f5472616e73616374696f6e2063616e6e6f7420686176652030206f75747075748152607360f81b602082015260400192915050565b6000613beb603a83615542565b7f4465636f646564206974656d206c656e677468206d757374206265206571756181527f6c20746f2074686520696e7075742064617461206c656e677468000000000000602082015260400192915050565b6000613c4a602283615542565b7f7478496e6465782065786365656473207468652073697a65206f662075696e74815261189b60f11b602082015260400192915050565b6000613c8e601a83615542565b7f4f757470757420696e646578206f7574206f6620626f756e6473000000000000815260200192915050565b6000613cc7604083615542565b7f546865206368616c6c656e67696e67207472616e73616374696f6e206973207481527f68652073616d652061732074686520636c61696d207472616e73616374696f6e602082015260400192915050565b6000613d26602083615542565b7f496e76616c6964206c656e67746820666f722061206c6f6e6720737472696e67815260200192915050565b6000613d5f602683615542565b7f4465636f64656420524c50206c656e67746820666f72206c69737420697320698152651b9d985b1a5960d21b602082015260400192915050565b6000613da7602c83615542565b7f52657175657374656420616d6f756e742065786365656473207468652055736181526b626c65204c6971756469747960a01b602082015260400192915050565b6000613df5602583615542565b7f5472616e73616374696f6e206f757470757473206e756d2065786365656473208152641b1a5b5a5d60da1b602082015260400192915050565b6000613e3c602483615542565b7f5472616e73616374696f6e20696e70757473206e756d2065786365656473206c8152631a5b5a5d60e21b602082015260400192915050565b6000613e82601483615542565b73109bdb990815985b1d59481a5b98dbdc9c9958dd60621b815260200192915050565b6000613eb2601e83615542565b7f54686520636c61696d206973206e6f742066696e616c697a6564207965740000815260200192915050565b6000613eeb601083615542565b6f0747844617461206d75737420626520360841b815260200192915050565b6000613f17601b83615542565b7f536166654d6174683a206164646974696f6e206f766572666c6f770000000000815260200192915050565b6000613f50601d83615542565b7f4f75747075742064617461206d75737420686176652033206974656d73000000815260200192915050565b6000613f89602b83615542565b7f546865206f7574707574206973206e6f74206f776e656420627920746865207181526a3ab0b9b0b91037bbb732b960a91b602082015260400192915050565b6000613fd6602183615542565b7f546865205554584f2068617320616c7265616479206265656e20636c61696d658152601960fa1b602082015260400192915050565b6000614019601c83615542565b7f546865206368616c6c656e676520706572696f64206973206f76657200000000815260200192915050565b6000614052603f83615542565b7f496e76616c6964206c656164696e67207a65726f7320696e206c656e6774682081527f6f6620746865206c656e67746820666f722061206c6f6e6720737472696e6700602082015260400192915050565b60006140b1602083615542565b7f5361666545524332303a206c6f772d6c6576656c2063616c6c206661696c6564815260200192915050565b60006140ea601f83615542565b7f496e76616c696420656e636f64696e67206f66207472616e73616374696f6e00815260200192915050565b6000614123601b83615542565b7f4f757470757420616d6f756e74206d757374206e6f7420626520300000000000815260200192915050565b600061415c601e83615542565b7f536166654d6174683a207375627472616374696f6e206f766572666c6f770000815260200192915050565b6000614195601983615542565b7f5370656e64696e6720636f6e646974696f6e206661696c656400000000000000815260200192915050565b60006141ce603183615542565b7f4f6e6c792074686520517561736172204d61696e7461696e65722063616e20698152701b9d9bdad9481d1a1a5cc81b595d1a1bd9607a1b602082015260400192915050565b6000614221602b83615542565b7f416d6f756e742073686f756c64206265206c6f776572207468616e20636c616981526a6d61626c652066756e647360a81b602082015260400192915050565b600061426e602283615542565b7f576173206e6f742063616c6c656420627920746865204f7574707574206f776e81526132b960f11b602082015260400192915050565b60006142b2601c83615542565b7f496e76616c6964207472616e73616374696f6e20706f736974696f6e00000000815260200192915050565b60006142eb601e83615542565b7f4d65726b6c652070726f6f66206d757374206e6f7420626520656d7074790000815260200192915050565b6000614324602c83615542565b7f4661696c656420746f206765742074686520726f6f742068617368206f66207481526b686520626c6f636b206e756d60a01b602082015260400192915050565b6000614372602783615542565b7f536166654574685472616e736665723a206661696c656420746f207472616e738152660cccae4408aa8960cb1b602082015260400192915050565b60006143bb602283615542565b7f5363616c617220302073686f756c6420626520656e636f646564206173203078815261038360f41b602082015260400192915050565b60006143ff604883615542565b7f496e76616c6964206465636f646564206c656e677468206f6620524c5020697481527f656d20666f756e6420647572696e6720636f756e74696e67206974656d7320696020820152671b8818481b1a5cdd60c21b604082015260600192915050565b600061446f601b83615542565b7f49464520436c61696d20706572696f6420686173207061737365640000000000815260200192915050565b60006144a8601983615542565b7f50726f766964656420547820646f65736e277420657869737400000000000000815260200192915050565b60006144e1601e83615542565b7f54686520636c61696d206973206e6f74206368616c6c656e676561626c650000815260200192915050565b600061451a600f83615542565b6e105b1c9958591e4818db185a5b5959608a1b815260200192915050565b6000614545602183615542565b7f536166654d6174683a206d756c7469706c69636174696f6e206f766572666c6f8152607760f81b602082015260400192915050565b6000614588602083615542565b7f4f7574707574206f75747075744775617264206d757374206e6f742062652030815260200192915050565b60006145c1601e83615542565b7f496e76616c6964206c656e67746820666f722061206c6f6e67206c6973740000815260200192915050565b60006145fa601883615542565b7f4f7574707574206d75737420686176652032206974656d730000000000000000815260200192915050565b6000614633603d83615542565b7f496e76616c6964206c656164696e67207a65726f7320696e206c656e6774682081527f6f6620746865206c656e67746820666f722061206c6f6e67206c697374000000602082015260400192915050565b6000614692601283615542565b71125d195b481a5cc81b9bdd0818481b1a5cdd60721b815260200192915050565b60006146c0601883615542565b7f49464520686173206e6f74206265656e20737461727465640000000000000000815260200192915050565b60006146f9603783615542565b7f54686520636c61696d207472616e73616374696f6e20646f6573206e6f74207381527f70656e642074686520636f7272656374206f7574707574000000000000000000602082015260400192915050565b6000614758601783615542565b7f4974656d206d757374206e6f742062652061206c697374000000000000000000815260200192915050565b6000614791603083615542565b7f54686520636c61696d2068617320616c7265616479206265656e20636c61696d81526f1959081bdc8818da185b1b195b99d95960821b602082015260400192915050565b60006147e3601683615542565b75139d5b1b081a5b9c1d5d081b9bdd08185b1b1bddd95960521b815260200192915050565b6000614815602583615542565b7f5370656e64696e6720636f6e646974696f6e20636f6e7472616374206e6f7420815264199bdd5b9960da1b602082015260400192915050565b600061485c601983615542565b7f4f75747075742074797065206d757374206e6f74206265203000000000000000815260200192915050565b6000614895601383615542565b72151a58dad95d081a5cc81b9bdd081d985b1a59606a1b815260200192915050565b60006148c4601683615542565b754974656d206c656e677468206d75737420626520323160501b815260200192915050565b60006148f6602083615542565b7f57726f6e6720746f6b656e2073656e7420746f20717561736172206f776e6572815260200192915050565b600061492f601f83615542565b7f52657175657374656420616d6f756e742063616e6e6f74206265207a65726f00815260200192915050565b6000614968601d83615542565b7f5468652051756173617220636f6e747261637420697320706175736564000000815260200192915050565b60006149a1602683615542565b7f546865206368616c6c656e67696e67207472616e73616374696f6e20697320698152651b9d985b1a5960d21b602082015260400192915050565b6000611a08600083611c2b565b60006149f6602383615542565b7f5469636b6574207374696c6c2076616c6964206f7220646f65736e27742065788152621a5cdd60ea1b602082015260400192915050565b6000614a3b601e83615542565b7f54686973205554584f20616c7265616479206861732061207469636b65740000815260200192915050565b6000614a74601e83615542565b7f4465636f646564206974656d206c656e677468206d7573742062652033330000815260200192915050565b6000614aad601d83615542565b7f496e76616c69642073686f727420737472696e6720656e636f64696e67000000815260200192915050565b6000614ae6602a83615542565b7f5361666545524332303a204552433230206f7065726174696f6e20646964206e8152691bdd081cdd58d8d9595960b21b602082015260400192915050565b6000614b32602f83615542565b7f4c656e677468206f66204d65726b6c652070726f6f66206d757374206265206181526e1036bab63a34b836329037b310199960891b602082015260400192915050565b6000614b83601e83615542565b7f4465636f646564206974656d206c656e677468206d7573742062652032310000815260200192915050565b6000614bbc601683615542565b754974656d206c656e677468206d75737420626520333360501b815260200192915050565b6000614bee603283615542565b7f546865205554584f2069732066726f6d206120626c6f636b206c6174657220748152711a185b881d1a19481cd85999481b1a5b5a5d60721b602082015260400192915050565b6000614c42602a83615542565b7f4974656d206c656e677468206d757374206265206265747765656e203120616e8152696420333320627974657360b01b602082015260400192915050565b6000614c8e602c83615542565b7f4d6f7265567046696e616c697a6174696f6e3a206e6f742061204d6f7265565081526b040e0e4dee8dec6ded840e8f60a31b602082015260400192915050565b6000614cdc601f83615542565b7f5361666545524332303a2063616c6c20746f206e6f6e2d636f6e747261637400815260200192915050565b6000614d15601483615542565b73496e636f72726563742053656e6465724461746160601b815260200192915050565b6000614d45602c83615542565b7f496e64657820646f6573206e6f74206d6174636820746865206c656e6774682081526b37b3103a343290383937b7b360a11b602082015260400192915050565b6138ca8161557a565b6138ca81615573565b6138ca81610693565b6138ca81615598565b6000614db682846138d0565b50601401919050565b6000614dcb8286613943565b600182019150614ddb8285613954565b602082019150614deb8284613954565b506020019392505050565b6000614e028285613943565b6001820191506122728284613998565b6000611a488284613998565b6000611a4882846139c7565b6000611a08826149dc565b60208101611a0882846138c1565b60e08101614e51828a6138c1565b614e5e6020830189614d98565b614e6b6040830188614d98565b614e7860608301876138c1565b614e856080830186614d98565b81810360a0830152614e978185613960565b9050614ea660c083018461393a565b98975050505050505050565b60608101614ec082866138c1565b614ecd60208301856138c1565b6122726040830184614d98565b60408101614ee882856138c1565b611a486020830184614d98565b60208082528101611a4881846138e1565b60208101611a08828461393a565b60a08082528101614f258188613960565b9050614f346020830187614d98565b8181036040830152614f468186613960565b9050614f556060830185614d8f565b8181036080830152614f678184613960565b979650505050505050565b60608082528101614f838186613960565b9050614f926020830185614d98565b612272604083018461393a565b60208101611a088284613a4e565b60208082528101611c2881613a57565b60208082528101611c2881613a90565b60208082528101611c2881613ad3565b60208082528101611c2881613b0c565b60208082528101611c2881613b62565b60208082528101611c2881613b9b565b60208082528101611c2881613bde565b60208082528101611c2881613c3d565b60208082528101611c2881613c81565b60208082528101611c2881613cba565b60208082528101611c2881613d19565b60208082528101611c2881613d52565b60208082528101611c2881613d9a565b60208082528101611c2881613de8565b60208082528101611c2881613e2f565b60208082528101611c2881613e75565b60208082528101611c2881613ea5565b60208082528101611c2881613ede565b60208082528101611c2881613f0a565b60208082528101611c2881613f43565b60208082528101611c2881613f7c565b60208082528101611c2881613fc9565b60208082528101611c288161400c565b60208082528101611c2881614045565b60208082528101611c28816140a4565b60208082528101611c28816140dd565b60208082528101611c2881614116565b60208082528101611c288161414f565b60208082528101611c2881614188565b60208082528101611c28816141c1565b60208082528101611c2881614214565b60208082528101611c2881614261565b60208082528101611c28816142a5565b60208082528101611c28816142de565b60208082528101611c2881614317565b60208082528101611c2881614365565b60208082528101611c28816143ae565b60208082528101611c28816143f2565b60208082528101611c2881614462565b60208082528101611c288161449b565b60208082528101611c28816144d4565b60208082528101611c288161450d565b60208082528101611c2881614538565b60208082528101611c288161457b565b60208082528101611c28816145b4565b60208082528101611c28816145ed565b60208082528101611c2881614626565b60208082528101611c2881614685565b60208082528101611c28816146b3565b60208082528101611c28816146ec565b60208082528101611c288161474b565b60208082528101611c2881614784565b60208082528101611c28816147d6565b60208082528101611c2881614808565b60208082528101611c288161484f565b60208082528101611c2881614888565b60208082528101611c28816148b7565b60208082528101611c28816148e9565b60208082528101611c2881614922565b60208082528101611c288161495b565b60208082528101611c2881614994565b60208082528101611c28816149e9565b60208082528101611c2881614a2e565b60208082528101611c2881614a67565b60208082528101611c2881614aa0565b60208082528101611c2881614ad9565b60208082528101611c2881614b25565b60208082528101611c2881614b76565b60208082528101611c2881614baf565b60208082528101611c2881614be1565b60208082528101611c2881614c35565b60208082528101611c2881614c81565b60208082528101611c2881614ccf565b60208082528101611c2881614d08565b60208082528101611c2881614d38565b60208101611a088284614d98565b604081016154798285614d98565b611a486020830184614d86565b60408101614ee88285614d98565b60208101611a088284614da1565b6040518181016001600160401b03811182821017156154c057600080fd5b604052919050565b60006001600160401b038211156154de57600080fd5b5060209081020190565b60006001600160401b038211156154fe57600080fd5b5060200290565b60006001600160401b0382111561551b57600080fd5b506020601f91909101601f19160190565b60200190565b60009081526020902090565b5190565b90815260200190565b6000611c288261557a565b151590565b6001600160f81b03191690565b6000611c288261554b565b61ffff1690565b6001600160a01b031690565b6001600160401b031690565b60ff1690565b6000611c2882615586565b82818337506000910152565b60005b838110156155ca5781810151838201526020016155b2565b83811115611c045750506000910152565b6000611c28826000611c28826155f6565b601f01601f191690565b60601b90565b6156058161554b565b81146119d757600080fd5b61560581615556565b61560581610693565b61560581615568565b61560581615573565b61560581615586565b6156058161559256fe295117b46583975aa628030f075db55be810827e0213ee4e1f8d02c1c7f16efda365627a7a723158209407773594ba9268de7b2c19a9ab7bb808e1ca633a5f43982dd13bfb27dcfaca6c6578706572696d656e74616cf564736f6c634300050b0040",
  "source": "pragma solidity 0.5.11;\npragma experimental ABIEncoderV2;\n\nimport \"./QuasarPool.sol\";\nimport \"../../src/framework/PlasmaFramework.sol\";\nimport \"../../src/exits/payment/PaymentExitGame.sol\";\nimport \"../../src/utils/PosLib.sol\";\nimport \"../../src/utils/Merkle.sol\";\nimport \"../../src/exits/utils/ExitId.sol\";\nimport \"../../src/exits/payment/routers/PaymentInFlightExitRouter.sol\";\nimport \"../../src/utils/SafeEthTransfer.sol\";\nimport \"../../src/transactions/PaymentTransactionModel.sol\";\nimport \"../../src/transactions/GenericTransaction.sol\";\nimport \"../../src/exits/utils/MoreVpFinalization.sol\";\nimport \"../../src/exits/interfaces/ISpendingCondition.sol\";\nimport \"../../src/exits/registries/SpendingConditionRegistry.sol\";\nimport \"openzeppelin-solidity/contracts/math/SafeMath.sol\";\nimport \"openzeppelin-solidity/contracts/token/ERC20/IERC20.sol\";\nimport \"openzeppelin-solidity/contracts/token/ERC20/SafeERC20.sol\";\n\n/**\n * @title Quasar Contract\n * Implementation Doc - https://github.com/omgnetwork/research-workshop/blob/master/Incognito_fast_withdrawals.md\n*/\ncontract Quasar is QuasarPool {\n    using SafeERC20 for IERC20;\n    using SafeMath for uint256;\n    using SafeMath for uint64;\n    using PosLib for PosLib.Position;\n\n    PlasmaFramework public plasmaFramework;\n    // This contract works with the current exit game\n    // Any changes to the exit game would require modifications to this contract\n    // Verify the exit game before interacting\n    PaymentExitGame public paymentExitGame;\n    SpendingConditionRegistry public spendingConditionRegistry;\n\n    address public quasarOwner;\n    uint256 public safeBlockMargin;\n    uint256 public waitingPeriod;\n    uint256 constant public TICKET_VALIDITY_PERIOD = 14400;\n    uint256 constant public IFE_CLAIM_MARGIN = 28800;\n    // 7+1 days waiting period for IFE Claims\n    uint256 constant public IFE_CLAIM_WAITING_PERIOD = 691200;\n    uint256 public bondValue;\n    // bond is added to this reserve only when tickets are flushed, bond is returned every other time\n    uint256 public unclaimedBonds;\n    bool public isPaused;\n\n    struct Ticket {\n        address payable outputOwner;\n        uint256 validityTimestamp;\n        uint256 reservedAmount;\n        address token;\n        uint256 bondValue;\n        bytes rlpOutputCreationTx;\n        bool isClaimed;\n    }\n\n    struct Claim {\n        bytes rlpClaimTx;\n        uint256 finalizationTimestamp;\n        bool isValid;\n    }\n\n    mapping (uint256 => Ticket) public ticketData;\n    mapping (uint256 => Claim) public ifeClaimData;\n\n    event NewTicketObtained(uint256 utxoPos);\n    event IFEClaimSubmitted(uint256 utxoPos, uint160 exitId);\n    \n    modifier onlyQuasarMaintainer() {\n        require(msg.sender == quasarMaintainer, \"Only the Quasar Maintainer can invoke this method\");\n        _;\n    }\n\n    modifier onlyWhenNotPaused() {\n        require(!isPaused, \"The Quasar contract is paused\");\n        _;\n    }\n\n    /**\n     * @dev Constructor, takes params to set up quasar contract\n     * @param plasmaFrameworkContract Plasma Framework contract address\n     * @param _quasarOwner Receiver address on Plasma\n     * @param _safeBlockMargin The Quasar will not accept exits for outputs younger than the current plasma block minus the safe block margin \n     * @param _waitingPeriod Waiting period from submission to processing claim\n     * @param _bondValue bond to obtain tickets\n    */\n    constructor (\n        address plasmaFrameworkContract, \n        address spendingConditionRegistryContract, \n        address _quasarOwner, \n        uint256 _safeBlockMargin, \n        uint256 _waitingPeriod, \n        uint256 _bondValue\n    ) public {\n        plasmaFramework = PlasmaFramework(plasmaFrameworkContract);\n        paymentExitGame = PaymentExitGame(plasmaFramework.exitGames(1));\n        spendingConditionRegistry = SpendingConditionRegistry(spendingConditionRegistryContract);\n        quasarOwner = _quasarOwner;\n        quasarMaintainer = msg.sender;\n        safeBlockMargin = _safeBlockMargin;\n        waitingPeriod = _waitingPeriod;\n        bondValue = _bondValue;\n        unclaimedBonds = 0;\n    }\n\n    /**\n     * @return  The latest safe block number\n    */\n    function getLatestSafeBlock() public view returns(uint256) {\n        uint256 childBlockInterval = plasmaFramework.childBlockInterval();\n        uint currentPlasmaBlock = plasmaFramework.nextChildBlock().sub(childBlockInterval);\n        return currentPlasmaBlock.sub(safeBlockMargin.mul(childBlockInterval));\n    }\n\n    ////////////////////////////////////////////\t\n    // Maintenance methods\t\n    ////////////////////////////////////////////\n    /**\n     * @dev Set the safe block margin.\n     * @param margin the new safe block margin\n    */\n    function setSafeBlockMargin (uint256 margin) public onlyQuasarMaintainer() {\n        safeBlockMargin = margin;\n    }\n\n    /**\n     * @dev Flush an expired ticket to free up reserved funds\n     * @notice Only an unclaimed ticket can be flushed, bond amount is added to unclaimedBonds\n     * @param utxoPos pos of the output, which is the ticket identifier\n    */\n    function flushExpiredTicket(uint256 utxoPos) public {\n        uint256 expiryTimestamp = ticketData[utxoPos].validityTimestamp;\n        require(!ticketData[utxoPos].isClaimed, \"The UTXO has already been claimed\");\n        require(block.timestamp > expiryTimestamp && expiryTimestamp != 0, \"Ticket still valid or doesn't exist\");\n\n        uint256 tokenAmount = ticketData[utxoPos].reservedAmount;\n        ticketData[utxoPos].reservedAmount = 0;\n        ticketData[utxoPos].validityTimestamp = 0;\n        tokenUsableCapacity[ticketData[utxoPos].token] = tokenUsableCapacity[ticketData[utxoPos].token].add(tokenAmount);\n        unclaimedBonds = unclaimedBonds.add(ticketData[utxoPos].bondValue); \n    }\n\n    /**\n     * @dev Pause contract in a byzantine state\n    */\n    function pauseQuasar() public onlyQuasarMaintainer() {\n        isPaused = true;\n    }\n\n    /**\n     * @dev Unpause contract and allow tickets\n    */\n    function resumeQuasar() public onlyQuasarMaintainer() {\n        isPaused = false;\n    }\n\n    /**\n     * @dev Withdraw Unclaimed bonds from the contract\n    */\n    function withdrawUnclaimedBonds() public onlyQuasarMaintainer() {\n        uint256 amount = unclaimedBonds;\n        unclaimedBonds = 0;\n        SafeEthTransfer.transferRevertOnError(msg.sender, amount, SAFE_GAS_STIPEND);\n    }\n\n    ////////////////////////////////////////////\t\n    // Exit procedure\t\n    ////////////////////////////////////////////\n    /**\n     * @dev Obtain a ticket from the Quasar\n     * @notice Ticket is valid for four hours, pay bond here for obtaining ticket\n     * @param utxoPos Output that will be spent to the quasar later, is the ticket identifier\n     * @param rlpOutputCreationTx RLP-encoded transaction that created the output\n     * @param outputCreationTxInclusionProof Transaction inclusion proof\n    */\n    function obtainTicket(uint256 utxoPos, bytes memory rlpOutputCreationTx, bytes memory outputCreationTxInclusionProof) public payable onlyWhenNotPaused() {\n        require(msg.value == bondValue, \"Bond Value incorrect\");\n        require(!ticketData[utxoPos].isClaimed, \"The UTXO has already been claimed\");\n        require(ticketData[utxoPos].validityTimestamp == 0, \"This UTXO already has a ticket\");\n\n        PosLib.Position memory utxoPosDecoded = PosLib.decode(utxoPos);\n\n        require(utxoPosDecoded.blockNum <= getLatestSafeBlock(), \"The UTXO is from a block later than the safe limit\");\n\n        PaymentTransactionModel.Transaction memory decodedTx\n        = PaymentTransactionModel.decode(rlpOutputCreationTx);\n\n        FungibleTokenOutputModel.Output memory outputData\n        = PaymentTransactionModel.getOutput(decodedTx, utxoPosDecoded.outputIndex);\n        \n        // verify the owner of output is obtaining the ticket\n        require(verifyOwnership(outputData, msg.sender), \"Was not called by the Output owner\");\n\n        require(MoreVpFinalization.isStandardFinalized(\n            plasmaFramework,\n            rlpOutputCreationTx,\n            utxoPosDecoded.toStrictTxPos(),\n            outputCreationTxInclusionProof\n        ), \"Provided Tx doesn't exist\");\n\n        require(outputData.amount <= tokenUsableCapacity[outputData.token], \"Requested amount exceeds the Usable Liqudity\");\n        require(outputData.amount != 0, \"Requested amount cannot be zero\");\n\n        tokenUsableCapacity[outputData.token] = tokenUsableCapacity[outputData.token].sub(outputData.amount);\n        ticketData[utxoPos] = Ticket(msg.sender, block.timestamp.add(TICKET_VALIDITY_PERIOD), outputData.amount, outputData.token, msg.value, rlpOutputCreationTx, false);\n        emit NewTicketObtained(utxoPos);\n    }\n\n    // for simplicity fee has to be from a seperate input in the tx to quasar\n    /**\n     * @dev Submit claim after spending the output to the quasar owner\n     * @param utxoPos pos of the output, which is the ticket identifier\n     * @param utxoPosQuasarOwner pos of the quasar owner's output\n     * @param rlpTxToQuasarOwner RLP-encoded transaction that spends the output to quasar owner\n     * @param txToQuasarOwnerInclusionProof Transaction Inclusion proof\n    */\n    function claim(\n        uint256 utxoPos,\n        uint256 utxoPosQuasarOwner,\n        bytes memory rlpTxToQuasarOwner,\n        bytes memory txToQuasarOwnerInclusionProof\n    ) public {\n        verifyTicketValidityForClaim(utxoPos);\n\n        verifyClaimTxCorrectlyFormed(utxoPos, rlpTxToQuasarOwner);\n\n        PosLib.Position memory utxoQuasarOwnerDecoded = PosLib.decode(utxoPosQuasarOwner);\n        require(MoreVpFinalization.isStandardFinalized(\n            plasmaFramework,\n            rlpTxToQuasarOwner,\n            utxoQuasarOwnerDecoded.toStrictTxPos(),\n            txToQuasarOwnerInclusionProof\n        ), \"Provided Tx doesn't exist\");\n\n        ticketData[utxoPos].isClaimed = true;\n\n        address payable outputOwner = ticketData[utxoPos].outputOwner;\n        address token = ticketData[utxoPos].token;\n        if (token == address(0)) {\n            uint256 totalAmount = ticketData[utxoPos].reservedAmount.add(ticketData[utxoPos].bondValue);\n            SafeEthTransfer.transferRevertOnError(outputOwner, totalAmount, SAFE_GAS_STIPEND);\n        } else {\n            IERC20(token).safeTransfer(outputOwner, ticketData[utxoPos].reservedAmount);\n            SafeEthTransfer.transferRevertOnError(outputOwner, ticketData[utxoPos].bondValue, SAFE_GAS_STIPEND);\n        }\n    }\n\n    /**\n     * @dev Submit an IFE claim for claims without inclusion proof\n     * @param utxoPos pos of the output, which is the ticket identifier\n     * @param inFlightClaimTx in-flight tx that spends the output to quasar owner\n    */\n    function ifeClaim(uint256 utxoPos, bytes memory inFlightClaimTx) public {\n        verifyTicketValidityForClaim(utxoPos);\n\n        verifyClaimTxCorrectlyFormed(utxoPos, inFlightClaimTx);\n        //verify IFE started\n        uint160 exitId = ExitId.getInFlightExitId(inFlightClaimTx);\n        uint160[] memory exitIdArr = new uint160[](1);\n        exitIdArr[0] = exitId;\n        PaymentExitDataModel.InFlightExit[] memory ifeData = paymentExitGame.inFlightExits(exitIdArr);\n        require(ifeData[0].exitStartTimestamp != 0, \"IFE has not been started\");\n\n        // IFE claims should start within IFE_CLAIM_MARGIN from starting IFE to enable sufficient time to piggyback\n        // this might be overriden by the ticket expiry check usually, except if the ticket is obtained later\n        require(block.timestamp <= ifeData[0].exitStartTimestamp.add(IFE_CLAIM_MARGIN), \"IFE Claim period has passed\");\n\n        ticketData[utxoPos].isClaimed = true;\n        ifeClaimData[utxoPos] = Claim(inFlightClaimTx, block.timestamp.add(IFE_CLAIM_WAITING_PERIOD), true);\n        emit IFEClaimSubmitted(utxoPos, exitId);\n        \n    }\n\n    /**\n     * @dev Challenge an IFE claim\n     * @notice A challenge is required if any of the claimTx's inputs are double spent\n     * @param utxoPos pos of the output, which is the ticket identifier\n     * @param rlpChallengeTx RLP-encoded challenge transaction\n     * @param challengeTxInputIndex index pos of the same utxo in the challenge transaction\n     * @param challengeTxWitness Witness for challenging transaction\n     * @param otherInputIndex (optional) index pos of another input from the claimTx that is spent\n     * @param otherInputCreationTx (optional) Transaction that created this shared input\n     * @param senderData A keccak256 hash of the sender's address\n    */\n    function challengeIfeClaim(\n        uint256 utxoPos,\n        bytes memory rlpChallengeTx,\n        uint16 challengeTxInputIndex,\n        bytes memory challengeTxWitness,\n        uint16 otherInputIndex,\n        bytes memory otherInputCreationTx,\n        bytes32 senderData\n    ) public {\n        require(senderData == keccak256(abi.encodePacked(msg.sender)), \"Incorrect SenderData\");\n        require(ticketData[utxoPos].isClaimed && ifeClaimData[utxoPos].isValid, \"The claim is not challengeable\");\n        require(block.timestamp <= ifeClaimData[utxoPos].finalizationTimestamp, \"The challenge period is over\");\n        require(\n            keccak256(ifeClaimData[utxoPos].rlpClaimTx) != keccak256(rlpChallengeTx),\n            \"The challenging transaction is the same as the claim transaction\"\n        );\n\n        require(MoreVpFinalization.isProtocolFinalized(\n            plasmaFramework,\n            rlpChallengeTx\n        ), \"The challenging transaction is invalid\");\n\n        if (otherInputCreationTx.length == 0) {\n            verifySpendingCondition(utxoPos, ticketData[utxoPos].rlpOutputCreationTx, rlpChallengeTx, challengeTxInputIndex, challengeTxWitness);\n        } else {\n            PaymentTransactionModel.Transaction memory decodedTx\n            = PaymentTransactionModel.decode(ifeClaimData[utxoPos].rlpClaimTx);\n\n            verifySpendingCondition(uint256(decodedTx.inputs[otherInputIndex]), otherInputCreationTx, rlpChallengeTx, challengeTxInputIndex, challengeTxWitness);\n        }\n\n        ifeClaimData[utxoPos].isValid = false;\n        Ticket memory ticket = ticketData[utxoPos];\n        tokenUsableCapacity[ticket.token] = tokenUsableCapacity[ticket.token].add(ticket.reservedAmount);\n        SafeEthTransfer.transferRevertOnError(msg.sender, ticket.bondValue, SAFE_GAS_STIPEND);\n    }\n\n    /**\n     * @dev Process the IFE claim to get liquid funds\n     * @param utxoPos pos of the output, which is the ticket identifier\n    */\n    function processIfeClaim(uint256 utxoPos) public {\n        require(block.timestamp > ifeClaimData[utxoPos].finalizationTimestamp, \"The claim is not finalized yet\");\n        require(ifeClaimData[utxoPos].isValid, \"The claim has already been claimed or challenged\");\n        address payable outputOwner = ticketData[utxoPos].outputOwner;\n        ifeClaimData[utxoPos].isValid = false;\n        address token = ticketData[utxoPos].token;\n        if (token == address(0)) {\n            uint256 totalAmount = ticketData[utxoPos].reservedAmount.add(ticketData[utxoPos].bondValue);\n            SafeEthTransfer.transferRevertOnError(outputOwner, totalAmount, SAFE_GAS_STIPEND);\n        } else {\n            IERC20(token).safeTransfer(outputOwner, ticketData[utxoPos].reservedAmount);\n            SafeEthTransfer.transferRevertOnError(outputOwner, ticketData[utxoPos].bondValue, SAFE_GAS_STIPEND);\n        }\n    }\n\n    ////////////////////////////////////////////\t\n    // Helper methods\t\n    ////////////////////////////////////////////\n    /**\n     * @dev Verify the owner of the output\n     * @param output Output Data\n     * @param expectedOutputOwner expected owner of the output\n    */\n    function verifyOwnership(FungibleTokenOutputModel.Output memory output, address expectedOutputOwner) private pure returns(bool) {\n        address outputOwner = PaymentTransactionModel.getOutputOwner(output);\n        return outputOwner == expectedOutputOwner;\n    }\n\n    /**\n     * @dev Verify the challengeTx spends the output\n     * @param utxoPos pos of the output\n     * @param rlpOutputCreationTx transaction that created the output\n     * @param rlpChallengeTx RLP-encoded challenge transaction\n     * @param challengeTxInputIndex index pos of the same utxo in the challenge transaction\n     * @param challengeTxWitness Witness for challenging transaction\n    */\n    function verifySpendingCondition(uint256 utxoPos, bytes memory rlpOutputCreationTx, bytes memory rlpChallengeTx, uint16 challengeTxInputIndex, bytes memory challengeTxWitness) private {\n        GenericTransaction.Transaction memory challengingTx = GenericTransaction.decode(rlpChallengeTx);\n\n        GenericTransaction.Transaction memory inputTx = GenericTransaction.decode(rlpOutputCreationTx);\n        PosLib.Position memory utxoPosDecoded = PosLib.decode(utxoPos);\n        GenericTransaction.Output memory output = GenericTransaction.getOutput(inputTx, utxoPosDecoded.outputIndex);\n\n        ISpendingCondition condition = spendingConditionRegistry.spendingConditions(\n            output.outputType, challengingTx.txType\n        );\n        require(address(condition) != address(0), \"Spending condition contract not found\");\n        bool isSpent = condition.verify(\n            rlpOutputCreationTx,\n            utxoPos,\n            rlpChallengeTx,\n            challengeTxInputIndex,\n            challengeTxWitness\n        );\n        require(isSpent, \"Spending condition failed\");\n    }\n\n    /**\n     * @dev Verify the validity of the ticket\n     * @param utxoPos pos of the output, which is the ticket identifier\n    */\n    function verifyTicketValidityForClaim(uint256 utxoPos) private {\n        require(!ticketData[utxoPos].isClaimed, \"Already claimed\");\n        require(ticketData[utxoPos].outputOwner == msg.sender, \"Not called by the ticket owner\");\n        uint256 expiryTimestamp = ticketData[utxoPos].validityTimestamp;\n        require(expiryTimestamp != 0 && block.timestamp <= expiryTimestamp, \"Ticket is not valid\");\n    }\n    \n    /**\n     * @dev Verify the claim Tx is properly formed\n     * @param utxoPos pos of the output, which is the ticket identifier\n     * @param claimTx the Claim Tx to the quasar owner\n    */\n    function verifyClaimTxCorrectlyFormed(uint256 utxoPos, bytes memory claimTx) private {\n        PaymentTransactionModel.Transaction memory decodedTx = PaymentTransactionModel.decode(claimTx);\n\n        // first input should be the Utxo with which ticket was obtained\n        require(decodedTx.inputs[0] == bytes32(utxoPos), \"The claim transaction does not spend the correct output\");\n\n        // first output should be the utxo for Quasar owner\n        FungibleTokenOutputModel.Output memory outputData = PaymentTransactionModel.getOutput(decodedTx, 0);\n\n        // verify output to Quasar Owner\n        require(verifyOwnership(outputData, quasarOwner), \"The output is not owned by the quasar owner\");\n        // considering fee as a separate input\n        require(ticketData[utxoPos].reservedAmount == outputData.amount, \"Wrong amount sent to quasar owner\");\n        require(ticketData[utxoPos].token == outputData.token, \"Wrong token sent to quasar owner\");\n    }\n}\n",
  "sourcePath": "/Users/kevin/work/omg/plasma-contracts/plasma_framework/contracts/poc/fast_exits/Quasar.sol",
  "compiler": {
    "name": "solc",
    "version": "0.5.11+commit.c082d0b4.Emscripten.clang"
  },
  "schemaVersion": "3.2.0",
  "updatedAt": "2021-02-09T13:04:45.070Z",
  "networkType": "ethereum",
  "devdoc": {
    "methods": {
      "addEthCapacity()": {
        "details": "Add Eth Liquid funds to the quasar"
      },
      "addTokenCapacity(address,uint256)": {
        "details": "Add ERC20 Liquid funds to the quasar"
      },
      "challengeIfeClaim(uint256,bytes,uint16,bytes,uint16,bytes,bytes32)": {
        "details": "Challenge an IFE claim",
        "params": {
          "challengeTxInputIndex": "index pos of the same utxo in the challenge transaction",
          "challengeTxWitness": "Witness for challenging transaction",
          "otherInputCreationTx": "(optional) Transaction that created this shared input",
          "otherInputIndex": "(optional) index pos of another input from the claimTx that is spent",
          "rlpChallengeTx": "RLP-encoded challenge transaction",
          "senderData": "A keccak256 hash of the sender's address",
          "utxoPos": "pos of the output, which is the ticket identifier"
        }
      },
      "claim(uint256,uint256,bytes,bytes)": {
        "details": "Submit claim after spending the output to the quasar owner",
        "params": {
          "rlpTxToQuasarOwner": "RLP-encoded transaction that spends the output to quasar owner",
          "txToQuasarOwnerInclusionProof": "Transaction Inclusion proof",
          "utxoPos": "pos of the output, which is the ticket identifier",
          "utxoPosQuasarOwner": "pos of the quasar owner's output"
        }
      },
      "constructor": {
        "details": "Constructor, takes params to set up quasar contract",
        "params": {
          "_bondValue": "bond to obtain tickets",
          "_quasarOwner": "Receiver address on Plasma",
          "_safeBlockMargin": "The Quasar will not accept exits for outputs younger than the current plasma block minus the safe block margin ",
          "_waitingPeriod": "Waiting period from submission to processing claim",
          "plasmaFrameworkContract": "Plasma Framework contract address"
        }
      },
      "flushExpiredTicket(uint256)": {
        "details": "Flush an expired ticket to free up reserved funds",
        "params": {
          "utxoPos": "pos of the output, which is the ticket identifier"
        }
      },
      "getLatestSafeBlock()": {
        "return": "The latest safe block number"
      },
      "ifeClaim(uint256,bytes)": {
        "details": "Submit an IFE claim for claims without inclusion proof",
        "params": {
          "inFlightClaimTx": "in-flight tx that spends the output to quasar owner",
          "utxoPos": "pos of the output, which is the ticket identifier"
        }
      },
      "obtainTicket(uint256,bytes,bytes)": {
        "details": "Obtain a ticket from the Quasar",
        "params": {
          "outputCreationTxInclusionProof": "Transaction inclusion proof",
          "rlpOutputCreationTx": "RLP-encoded transaction that created the output",
          "utxoPos": "Output that will be spent to the quasar later, is the ticket identifier"
        }
      },
      "pauseQuasar()": {
        "details": "Pause contract in a byzantine state"
      },
      "processIfeClaim(uint256)": {
        "details": "Process the IFE claim to get liquid funds",
        "params": {
          "utxoPos": "pos of the output, which is the ticket identifier"
        }
      },
      "resumeQuasar()": {
        "details": "Unpause contract and allow tickets"
      },
      "setSafeBlockMargin(uint256)": {
        "details": "Set the safe block margin.",
        "params": {
          "margin": "the new safe block margin"
        }
      },
      "withdrawErc20(address,uint256)": {
        "details": "Withdraw Erc20 funds from the contract",
        "params": {
          "amount": "amount of the token to withdraw",
          "token": "the erc20 token"
        }
      },
      "withdrawEth(uint256)": {
        "details": "Withdraw Eth funds from the contract",
        "params": {
          "amount": "amount of Eth(in wei) to withdraw"
        }
      },
      "withdrawUnclaimedBonds()": {
        "details": "Withdraw Unclaimed bonds from the contract"
      }
    },
    "title": "Quasar Contract Implementation Doc - https://github.com/omgnetwork/research-workshop/blob/master/Incognito_fast_withdrawals.md"
  },
  "userdoc": {
    "methods": {
      "challengeIfeClaim(uint256,bytes,uint16,bytes,uint16,bytes,bytes32)": {
        "notice": "A challenge is required if any of the claimTx's inputs are double spent"
      },
      "flushExpiredTicket(uint256)": {
        "notice": "Only an unclaimed ticket can be flushed, bond amount is added to unclaimedBonds"
      },
      "obtainTicket(uint256,bytes,bytes)": {
        "notice": "Ticket is valid for four hours, pay bond here for obtaining ticket"
      }
    }
  }
}